:10000000D5C50000F0C50000EEC500000C944229E3
:10001000EAC50000E8C50000E6C50000E4C5000030
:10002000E2C50000E0C500000C94B0180C946C18F8
:100030000C949623D8C50000D6C50000D4C5000096
:10004000D2C50000D0C50000CEC50000CCC5000060
:10005000CAC500000C949719C6C50000C4C50000AD
:10006000C2C50000C0C50000BEC50000BCC5000080
:10007000BAC50000B8C50000B6C50000B4C5000090
:10008000B2C50000B0C50000AEC50000ACC50000A0
:10009000AAC50000A8C50000A6C50000A4C50000B0
:1000A000A2C50000A0C500009EC500006D61676E7E
:1000B0006574200073797374656D20006E756D73BF
:1000C0002020200073796D626F6C7300636F6C6524
:1000D0006D616B0071776572747920000E0000000D
:1000E00000000000000000FC1FFC3FFC7F3C003CC7
:1000F00000FC3FFC7F3CF03CE03CE03CE03CF0FCA2
:100100007FFC3F000000000000000000000E00F037
:1001100000F000F000F000F0F0FFF8FF3CF01CF001
:100120001CF01CF01CF01CF01CF01CF01CF03CF04F
:10013000F8FFF0FF000000000000000000000E00CB
:10014000000000000000000000F03FF87F3CF01CC1
:10015000E01CE000E000E000E000E01CE01CE03C0F
:10016000F0F87FF03F000000000000000000000EEB
:100170003C003C003C003C003C00FC3FFC7F3CF071
:100180003CE03CE03CE03CE03CE03CE03CE03CE08F
:100190003CF0FC7FFC3F000000000000000000007D
:1001A0000E00000000000000000000F03FF87F3C5F
:1001B000F01CE01CE0FCFFFCFF00E000E01CE01C89
:1001C000E03CF0F87FF03F0000000000000000007D
:1001D000000000000000000000000000000000001F
:1001E000000000000000000000000000000000000F
:1001F00000000000000000000000000000000000FF
:1002000000000E00000000000000000000FC3FFCA9
:100210007F3CF03CE03CE03CE03CE03CE03CE03C4F
:10022000E03CE03CF0FC7FFC3F3C003C003C00FC40
:10023000FFFCFF00000000000000000000000000C4
:1002400000000000000000000000000000000000AE
:10025000000000000000000000000000000000009E
:100260000000000004000000F000F000F0000000BA
:100270000000F000F000F000F000F000F000F000EE
:10028000F000F000F000F000F000F00000000000CE
:100290000000000000080000000F000F000F000029
:1002A0000000000F000F000F000F000F000F000FE5
:1002B000000F000F000F000F000F000F000F000FC6
:1002C00000FF00FE00FC0E00F000F000F000F00067
:1002D000F03CF078F0F0F0E0F1C0F380F700FF00C0
:1002E000FF80F7C0F3E0F1F0F078F03CF0000000A0
:1002F000000000000000000400F000F000F000F03A
:1003000000F000F000F000F000F000F000F000F06D
:1003100000F000F000F000F000F000F000F000004D
:1003200000000000000000001000000000000000BD
:10033000000000FC3FFE7FFFFFCFF3CFF3CFF3CFF2
:10034000F3CFF3CFF3CFF3CFF3CFF3CFF3CFF3006C
:100350000000000000000000000E0000000000008F
:1003600000000000F03FF87FFCFF3CF03CF03CF068
:100370003CF03CF03CF03CF03CF03CF03CF03CF01D
:10038000000000000000000000000E00000000005F
:100390000000000000F03FF87F3CF01CE01CE01C77
:1003A000E01CE01CE01CE01CE01CE03CF0F87FF0EE
:1003B0003F000000000000000000000000000000FE
:1003C000000000000000000000000000000000002D
:1003D000000000000000000000000000000000001D
:1003E0000000000000000000000000000E000000FF
:1003F00000000000000000FC3FFC7F3CF03CE03CC3
:10040000E03CE03CE03CE03CE03CE03CE03CF0FC3C
:100410007FFC3F3C003C003C003C003C000A0000EC
:100420000000000000000000C0CFC0FF80FF00FF00
:1004300000F000F000F000F000F000F000F000F03C
:1004400000F000F0000000000000000000000E00BE
:10045000000000000000000000F03FF87F3CF000CA
:10046000E000E000F0C0FFFC0F3C001C001C003C62
:10047000F0F87FF03F0000000000000000000008DE
:100480000000007800780078007800FF00FF00FF8F
:10049000007800780078007800780078007800789C
:1004A000007F007F007E00000000000000000000D0
:1004B0000E000000000000000000003CF03CF03C9A
:1004C000F03CF03CF03CF03CF03CF03CF03CF03CCC
:1004D000F0FCFFF87FF03F0000000000000000008B
:1004E000000000000000000000000000000000000C
:1004F00000000000000000000000000000000000FC
:1005000000000000000000000000000000000000EB
:1005100000001000000000000000000000CFF3CF3A
:10052000F3CFF3CFF3CFF3CFF3CFF3CFF3CFF3CFBB
:10053000F3DFFBFFFFFE7FFC3F0000000000000038
:100540000000000E000000000000000000001CE0A1
:100550001CE038707038E01CC00F80078007C00FA7
:10056000E01C703838701CE01CE000000000000047
:10057000000000000E000000000000000000003C31
:10058000F03CF03CF03CF03CF07878F03CE01FC0F0
:100590000F8007800780078007800780078007801B
:1005A0000780FF00FE0000000000000000000000C7
:1005B000000000000000000000000000000000003B
:1005C000000000000000000000000000000000002B
:1005D0000000000000002020202061626364656646
:1005E0006768696A6B6C6D6E6F7071727374757623
:1005F0007778797A31323334353637383930524575
:1006000042545F2D3D5B5D5C233B27602C2E2F20E9
:10061000202001043130307C0103E00103E60001B9
:10062000012A0001010600010128000102E3010185
:1006300050010435307C0103E3000102E301014F66
:10064000010435307C0103E30001010A00010117B8
:100650000001010900010108000101070001010E6C
:100660000001010D0001010C000101180001015100
:10067000000101520001014F00010150000102E0A0
:100680000102E6000102E30102E601013101043149
:1006900030307C0103E60103E3002B0014001A0054
:1006A000080015001700E00004001600070009000C
:1006B0000A00E1001D001B000600190005000000F3
:1006C00000000000E30022522C002A001300120058
:1006D0000C0018001C00340033000F000E000D0049
:1006E0000B00E50038003700360010001100000054
:1006F00000000000E600235228002B0014001A001E
:10070000090013000A00E00004001500160017009D
:100710000700E1001D001B00060019000500000095
:1007200000000000E30022522C002A0033001C00CD
:1007300018000F000D00340012000C00080011001A
:100740000B00E50038003700360010000E000000F6
:1007500000000000E6002352280029001E021F02AC
:10076000200226022702E0002102220223022F009B
:100770003000E1002402250231022F023002000085
:1007800000000000010001002C004C0000000000EF
:1007900035022E022D0200000000000035002E0060
:1007A0002D000000000000000000000031000000EB
:1007B00000000000E6002452280029001E001F004F
:1007C000200027000000E0002100220023006552E5
:1007D0000000E100240025002600000000000000C9
:1007E00000000000E30024522C004C000000000038
:1007F000520000000000000000004F0051005000B7
:1008000000000000000000000000000000000000E8
:1008100000000000E60001002800407E4678457890
:10082000000000000000427848784778000000008F
:10083000000043784A784978547E557E00000000D5
:1008400000000000000001000000A800AC00000053
:10085000000000000000AA00AE0000000000000040
:100860000000A900AB000000000000000000000034
:10087000000000000000010000006552537E4A7E27
:1008800000004C7E000040520000497E4B7E4D7EB1
:100890000000415200000000000000004F7E0000F8
:1008A0000000000000000000517E527E0000467EE5
:1008B000437E457E000000000000427E517E417E66
:1008C000000000000000487E447E477E4E7E00000F
:1008D0000000000000000000507E00DA0281FFD915
:1008E000F1DB20A4A62EAF00A0C0D30000A1C8D386
:1008F0000000AED580A81F408D14200020202020AD
:1009000020202000D400CC00C400BC00B400AC0007
:1009100000010101010101010101020202020202C2
:100920000202020303030303030303040404040495
:10093000040405050505050606060606070707075C
:100940000708080808090909090A0A0A0B0B0B0C11
:100950000C0C0D0D0D0E0E0E0F0F0F1010111111AE
:10096000121213131414151516161717181819192F
:100970001A1A1B1B1C1D1D1E1E1F20202122222394
:100980002424252626272829292A2B2C2D2D2E2FD5
:1009900030313232333435363738393A3B3C3D3EEC
:1009A0003F404142434445464748494A4C4D4E4FDB
:1009B00050515354555658595A5B5D5E5F6162649D
:1009C000656668696B6C6D6F7072737577787A7B2A
:1009D0007D7E8082838587888A8C8E8F9193959681
:1009E000989A9C9EA0A2A3A5A7A9ABADAFB1B3B5A1
:1009F000B7BABCBEC0C2C4C6C9CBCDCFD1D4D6D87D
:100A0000DBDDDFE2E4E7E9EBEEF0F3F5F8FAFDFF1A
:100A100000AF00AE05010980A101850319012AB7C5
:100A200000150126B700950175108100C0050C095D
:100A300001A101850419012AA002150126A0029531
:100A40000175108100C005010906A101050719E023
:100A500029E71500250195087501810295017508A2
:100A600081010507190029FF150026FF009506756D
:100A7000088100050819012905150025019505754E
:100A8000019102950175039101C009023B00020129
:100A900000A0FA090400000103010100092111016D
:100AA0000001224400070581030800010904010038
:100AB0000103000000092111010001223200070595
:100AC00082032000011201000200000008534601C9
:100AD000000100010200010C0343006F0072006E70
:100AE0000065000000100366006F006F0073007463
:100AF0000061006E00000004030904000000000013
:100B000000000000000000000000000000000000E5
:100B10000000000000000000000000000000007E57
:100B20000F00D4FFFFFFC7000000780000000000A6
:100B30000000002A2B280000000000000000000038
:100B400000000000000029000000002C1E342021BD
:100B50002224342627252E362D3738271E1F202104
:100B600022232425263333362E37381F0405060763
:100B700008090A0B0C0D0E0F10111213141516177D
:100B800018191A1B1C1D2F3130232D35040506079B
:100B900008090A0B0C0D0E0F10111213141516175D
:100BA00018191A1B1C1D2F3130354C0011241FBE83
:100BB000CFEFDAE0DEBFCDBF12E0A0E0B1E0E8E4C5
:100BC000F7E502C005900D92AA37B107D9F726E0E4
:100BD000AAE7B2E001C01D92AD35B207E1F70E946D
:100BE000C7230C94382B0CCA8091570481608093E2
:100BF0005704089590914F04937051F080935004DE
:100C000060935104493708F048E740935204ECCF11
:100C1000089590914F04937041F0811107C0946042
:100C200090934F0410924501DFCF0895833010F068
:100C30009860F6CF880F880F982BF2CF482F20911D
:100C40004E049091150457E0291302C080E00895E6
:100C500030E0529FF001539FF00D1124EA5EFB4FEC
:100C60008181681306C08081481303C0858181118A
:100C7000EECF2F5F3F4F2770E7CFFC01AC014C5FF9
:100C80005F4F8FEF91E32191822728E030E087FFCB
:100C900009C0880F892721503109C9F7E417F507E2
:100CA00091F70895880FF7CFE8EDF0E080818E7F0F
:100CB00080831092E2001092DA001092E100A0EE20
:100CC000B0E08C9181608C9380818F77808319BC98
:100CD000A7EDB0E08C918E7F8C9380818F7E808396
:100CE0001092000408952091E4003091E50095E60B
:100CF000A9012091EC00822F817020FF06C0809115
:100D0000E80080FF06C080E008952091E80022FD01
:100D10001AC080910B04882389F0853089F0809176
:100D2000EB0085FD0FC02091E4003091E5004217F3
:100D30005307F9F29150E1F684E0089582E00895B6
:100D400083E0089581E0089580910D0487FF13C02A
:100D50008091E80082FF06C08091E8008B77809345
:100D6000E80004C080910B048111F2CF08958091B6
:100D70000B048823D9F38091E80080FFF8CF80919D
:100D8000E8008E77ECCF982F9093E900242F762FF0
:100D900050E0891731F07091EC002091ED005091F6
:100DA000F00021FD07C09F5F973071F78093E90045
:100DB00081E008953091EB003E7F3093EB0030915D
:100DC000ED003D7F3093ED003091EB0031603093CA
:100DD000EB007093EC002093ED005093F000209115
:100DE000EE0027FDE0CF80E00895B0E0A0E0EBEF5B
:100DF000F6E00C94702AC8EDD0E088818F7E88835D
:100E0000E7EDF0E080818160808384E082BF81E053
:100E10008093000488818E7F888302EE10E0F801C1
:100E200010821092DA0081EEC82ED12CF6011082C9
:100E300088818F77888388818068888388818F7D87
:100E4000888319BC10920B0410920C0410920A04AF
:100E50001092090490EEE92EF12CF70180818B7F2E
:100E6000808388818160888342E060E080E08BDF5E
:100E7000F60180818E7F8083F8018081816080838C
:100E8000808188608083F70180818E7F8083888164
:100E900080618883CDB7DEB7E8E00C948C2AFC0132
:100EA000809113049091140486179707A0F06115A0
:100EB000710529F49091E8009E779093E80090E006
:100EC0006115710551F4911108C08091E80082FF0D
:100ED00034C080E00895BC01F2CF80910B048823D8
:100EE000C1F18530C1F18091E80083FD30C080916F
:100EF000E80082FDEACF8091E80080FFE1CF809199
:100F0000F3002091F200382F6115710519F0283097
:100F1000310558F091E02830310509F090E020913A
:100F2000E8002E772093E800CBCF81918093F100E9
:100F3000615071092F5F3F4FE7CF80910B048823E9
:100F400041F0853041F08091E80083FFBECF81E021
:100F5000089582E0089583E00895089508952FB7D5
:100F6000F8946091FC037091FD038091FE039091D1
:100F7000FF032FBF08958091420108959C01FC0159
:100F800032969FEF80E04191461751F09F3F19F450
:100F9000411101C0982F8F5F8630A9F79F3F09F458
:100FA0000895290F311D97FD3A95F901628308953F
:100FB000A3E0B0E0EEEDF7E00C94762A2091F9037F
:100FC0003091FA0328173907B1F09093FA03809310
:100FD000F903E091F703F091F803309761F0008492
:100FE000F185E02D309739F024E029839B838A83B3
:100FF000CE01019609952396E2E00C94922AA3E093
:10100000B0E0E5E0F8E00C94762A2091F503309109
:10101000F60328173907B1F09093F6038093F50390
:10102000E091F703F091F803309761F00084F185C7
:10103000E02D309739F023E029839B838A83CE010A
:10104000019609952396E2E00C94922A8091F3038D
:10105000882369F0E091F703F091F803309739F0B5
:101060000190F081E02D309711F00995089580E00E
:101070000895DC01ED91FC91119784913196ED93E7
:10108000FC930895FC01EE0FFF1FE80FF91FE25BD0
:10109000FC4F6183408322830895539A0895E09121
:1010A0005404EF3F89F0E53069F0E23019F0E111C6
:1010B0000DC0E3E0E150F0E0EA58FD4F80818093FD
:1010C000540492CDE1E0F6CFE3E0F5CFE0E0F3CFDA
:1010D000E0915404EF3F61F0E53061F0E23061F4FB
:1010E000EF5FF0E0EA58FD4F8081809354047CCD9F
:1010F000E0E0F6CFE1E0F4CFE0E0F3CFEFE4F4E0BE
:1011000024813AE0231B08F420E024836DCDEFE432
:10111000F4E024813AE0230F08F42FEF248364CD18
:10112000EFE4F4E0438124E0421B08F440E08181D5
:10113000628190E05FCDEFE4F4E0438124E0420F70
:1011400008F44FEF8181628190E054CDEFE4F4E048
:10115000628124E0621B08F460E08181438190E0B9
:1011600049CDEFE4F4E0628124E0620F08F46FEF10
:101170008181438190E03ECDEFE4F4E081814381C1
:1011800062818850990B36CDEFE4F4E0818190E0E4
:101190004381628108962ECD80914F048695869575
:1011A000815009F482E035CD80914F048695869573
:1011B0008F5F833008F081E02CCD80914F048370E5
:1011C00011F41092450180914F048C7F81608093CF
:1011D0004F040895EFE4F4E0808191E08927808353
:1011E0001092450101CD9BE0899F802D1124980F1D
:1011F000973308F096E32091F403222321F09C31E9
:1012000028F09BE108958B3108F48BE1089530912B
:10121000F403332321F08B3191052CF008958B31A9
:10122000910514F04B972ECF0895FF920F931F93C3
:10123000CF93DF93182F062FF42ED0E0C0E02F2D90
:10124000402F612FCE01E3DF2196C633D105B9F7D8
:10125000CDB7DEB7E5E00C948F2AE82F86FDE09548
:101260002E2F2F7086FD2F5FE695E695E695E670AA
:10127000F0E0E456FE4F9181929F902D212D112494
:1012800092959F702295207F922B2081920F87FD4F
:10129000919580E8890F0895B0E0A0E0E2E5F9E0DB
:1012A0000C94702A9B01E82FF0E0E05FF64F3111BB
:1012B00009C0E4918E2F7E2F6E2FCDB7DEB7E8E008
:1012C0000C948C2AE32EF12CE491FE2F0E2F10E0CB
:1012D00046E0649FC0011124CFEFD0E0BE010E9420
:1012E000522AAB01822F90E0880F991F25E5249F99
:1012F000B001259F700D1124861B970B982F990F15
:10130000980FBE016E197F09609FD001619FB00DDB
:10131000709FB00D11248B2F399F90011124232F22
:101320003327BE01621B730B609F9001619F300DDC
:10133000709F300D11246E01C91AD108CE9CB001E6
:10134000CF9C700DDE9C700D1124672F7727C61B74
:10135000D70BC09F7001C19FF00CD09FF00C1124DF
:101360007F2D42305105A1F050F44115510509F48B
:10137000A3CF4130510581F07B2F832F9DCF443087
:10138000510569F080F04630510509F495CFF4CF4E
:10139000EB2F8F2D7F2F90CF7E2FE32F8DCFEF2D33
:1013A0007B2F8F2F89CF732FEB2FFBCF80E00895FA
:1013B000F894E82FE295EF70F0E031A1282F2F701C
:1013C00081E090E001C0880F2A95EAF7982F909568
:1013D000932391A392A1892B82A3789408950F93CC
:1013E0001F938091F303882321F0B9DD1F910F91A2
:1013F0000895B5DD0091E8021091E9022091EA021A
:101400003091EB02600F711F821F931FEFCF9091FD
:10141000F60292FF10C041E0282F2471243009F019
:1014200040E031E0282F2871283009F030E04317E0
:1014300011F02CE0822793FF10C041E0282F247187
:10144000243109F040E031E0282F2871283109F0DB
:1014500030E0431711F02CE082273091F70230FF83
:1014600010C051E0282F2171213009F050E041E0F7
:10147000282F2871283009F040E0541711F029E096
:10148000822731FF10C041E0282F2171213109F05E
:1014900040E031E0282F2871283109F030E043176F
:1014A00011F029E0822794FF02C083FD877E089512
:1014B00082389105B9F1B0F48133910509F47DC00A
:1014C00048F48932910509F46DC08A32910509F416
:1014D0007BC008958533910509F45FC08933910578
:1014E00009F10895833E9105D9F138F4803E9105C4
:1014F00029F1823E910579F10895863E9105D9F151
:10150000873E910509F43EC0843E910541F5209146
:10151000F70221FF24C08091F60284FD19C087EEF6
:1015200090E008952091F602237009F05AC02091AE
:10153000F70223FF14C089E290E008952091F6029B
:1015400020FD38C03091F70230FF09C024FF43C0AE
:1015500090E080E008952091F60222FDF7CF0895F3
:101560002091F60222FD3AC03091F70230FD39C0D9
:1015700024FFF5CFEDCF2091F60223FFF0CF24FD1D
:10158000E7CFCDCF2091F60223FD2EC03091F70298
:1015900031FFEECF84EE90E008952091F60225FF12
:1015A000DECFC9CF2091F60225FD21C02091F702A0
:1015B00023FFD5CF89E390E0D2CF2091F60226FF1A
:1015C000CECF8AE290E008952091F60226FFC7CFA1
:1015D00081E390E0089583EE90E0089582EE90E03C
:1015E000089580EE90E0089586EE90E0089585E3FA
:1015F00090E00895972F7830B8F46630A8F48630DC
:10160000B0F470E026E0929F600D711D1124FB0183
:1016100090E3899FE00DF11D1124EE0FFF1FE656A8
:10162000F94F85919491089580E090E0089581E0CC
:10163000FCCF1F93CF93DF933BDFEC01C11580E517
:10164000D807F0F5C11580E4D80708F09AC0C03E6D
:10165000D10520F5CD3CD10508F082C0C83AD105AE
:1016600078F4C53AD10508F073C0C130D10519F13D
:10167000209709F1C430D105F0F4D0E0C0E01BC0E0
:10168000C33CD105D0F7C85AD0E0CC0FDD1FCE5AED
:10169000DE4F0990D881C02DD4640DC0C11580E201
:1016A000D80708F0CDC0C11581E0D80708F05AC0AE
:1016B000C83ED10510F7CE01DF91CF911F9108955B
:1016C000C03682E5D80718F5C03482E5D80708F09F
:1016D00068C0C03282E5D80708F05CC0C11582E559
:1016E000D80708F493C02C2F2695269580E2289FD2
:1016F000900111248C2F8370C1E0D0E002C0CC0F88
:10170000DD1F8A95E2F7C22BD32BDD68D4CFC03A18
:1017100082E5D80760F4C03882E5D80708F456C0DF
:10172000CF71D0E0DC2FCC27C46FD06AC4CFC03CCF
:1017300082E5D80708F45FC0C03E82E5D80708F00C
:101740009CCFDC2FCC27CC27DF71C06FD06AB3CF02
:10175000C55AD0E0C15BDE4FC881D0E0D064ABCFCA
:10176000D065A9CF8D2F53DE182FCE019927A0DE8B
:10177000C12FD0E0DC2FCC27CC27DF71C82BD92B91
:101780009ACFCE01992794DECC27DF70C82BD92BB6
:10179000D06A91CFCF71D0E0DC2FCC27C16FD06A57
:1017A0008ACF2C2F26952695277080E2289F9001BE
:1017B00011248C2F8370C1E0D0E002C0CC0FDD1F5C
:1017C0008A95E2F7C22BD32BDC6875CF2C2F269598
:1017D0002695277080E2289F900111248C2F83701A
:1017E000C1E0D0E002C0CC0FDD1F8A95E2F7C22B2A
:1017F000D32BDA6860CF8C2F8F7109DEC82FD0E031
:10180000DC2FCC27CC27DF71D06255CF8C2F8F7186
:10181000FEDD55E0D695C7955A95E1F7CF70D0E03B
:10182000DC2FCC27282F30E084FF06C044E0220FB5
:10183000331F4A95E1F73327C22BD32BD0693BCF17
:101840008D2F8F71E4DD182FCE01992731DEC12F46
:10185000D0E0DC2FCC27CC27DF71C82BD92BD4CFFD
:1018600080959091B00298239093B0020895809152
:101870004E0490911504981301C008958F5F8770EE
:10188000FACFB0E0A0E0E7E4FCE00C946F2A7C0122
:10189000009114031091150380911203909113038A
:1018A000082B192BCFE0D0E0CC24C394D12CBC2E34
:1018B000C6010C2E02C0880F991F0A94E2F78023FC
:1018C0009123892B49F4219790F7B12C8B2DCDB71B
:1018D000DEB7E9E00C948B2AB7018C2F8BDEA9DEF2
:1018E000019789F3F3CFCF93DF93EC01CADFBE01F9
:1018F00081DE9FDEDF91CF910895983078F58630B4
:1019000068F5E82FF0E086E0989FE00DF11D1124C6
:101910009E2F977083E0F695E7958A95E1F7EE0F95
:10192000FF1FEE0FFF1FEA57FD4F50E040E080E041
:10193000219130E0092E02C0369527950A94E2F7EE
:1019400021703327042E01C0220F0A94EAF7822B5C
:101950004F5F5F4F4430510559F7089580E0089577
:10196000983098F5863088F5E82FF0E086E0989F6B
:10197000E00DF11D11248E2F877041E001C0440F4E
:101980008A95EAF783E0F695E7958A95E1F7EE0FF9
:10199000FF1FEE0FFF1FEA57FD4F30E020E070E021
:1019A0005191DF011197CB01022E02C096958795C8
:1019B0000A94E2F7817081958527842385278C938B
:1019C0002F5F3F4F2430310559F708959093150349
:1019D00080931403089521E030E002C0220F331FEA
:1019E0008A95E2F720953095809114039091150324
:1019F00082239323EBCF9091A50280958923809336
:101A0000A502282F277061F4891751F09091F702F1
:101A100092FF06C0869586958695DDDF1092A50219
:101A2000089521E030E002C0220F331F8A95E2F7CB
:101A30008091140390911503822B932BC7CF909321
:101A40001303809312030895FC0124812223B9F02B
:101A50008081918148DF92959F70963091F058F483
:101A6000925F9F70923058F4803F19F030F4883EB6
:101A700030F481E008959A5FF4CF843FD1F380E0A1
:101A80000895883EB0F3813FD1F7F3CF292F332754
:101A900040E02115310511F0C90148E09C0164E0E6
:101AA000369527956A95E1F72115310511F04C5FC0
:101AB000C9019C0136952795369527952115310545
:101AC00011F04E5FC90196958795892B09F04F5FFC
:101AD000842F0895A6E0B0E0E0E7FDE00C94752ABD
:101AE00026E0FC01DE01119601900D922A95E1F7A6
:101AF000FC01258189819A81222381F0662371F07E
:101B0000C0DE182F682F89819A812ADF69817A8146
:101B1000812F70DD2696E3E00C94912AEEDE182FDB
:101B2000F5CFA8E0B0E0E7E9FDE00C94662A68870D
:101B30008E839F83DC0190E030E020E071E3B82EDB
:101B40004D915FE9540F5A3178F44156550B749F0B
:101B5000F001759FF00D1124E452FF4FE491EE2344
:101B600019F02E0F311D9F5F4A2F481B68844615C0
:101B700038F3992309F462C0923038F046E0949F1C
:101B8000200D311D11242650310980E890E0BC0160
:101B9000621B730B9B01369527958FE790E0821BA4
:101BA0009109F09058040091590410915A0461E091
:101BB000F1E3AF2E88248394912CAE81BF814D91A7
:101BC000BF83AE832FE9240F2A3170F54156550BA0
:101BD000A49E9001A59E300D1124F901E452FF4FFF
:101BE000E490EE2009F1611101C00697B491BD8324
:101BF000BB23B9F023523F4F45E050E071EF272E51
:101C0000280EF90145905490EFE0F0E041145104A2
:101C100009F05CC02E5F3F4F4F5F5F4F4D31510564
:101C200081F78E19910960E02E812B19C8842C153B
:101C300008F4C3CF10935A04009359042896E2E1A4
:101C40000C94822A4F1508F040C0D20C6D2D669579
:101C5000669566953A016F9D600C711C11247C821B
:101C60006B82611462E0760684F5D301A55ABB4FFE
:101C70003D013C90BD2DB770B40102C0660F771FC7
:101C8000BA95E2F76B01D2010E2E02C0B695A79568
:101C90000A94E2F7D32CDC28A0FD03C0DC2CD094FE
:101CA000D3203D1491F0D301DC92AB81BC8165E07F
:101CB000B695A7956A95E1F7340102C0660C771CCA
:101CC000AA95E2F7D30106291B2B3197DE2E7FE080
:101CD0007E1B7D80771508F4B5CF9CCFEBE5F4E053
:101CE00080E092E0DF019C011D9221503040E1F73D
:101CF000F0935C06E0935B068FEF9FEF90935A049E
:101D00008093590408952091B0028091A702282B56
:101D10008091A602882381F0282B30E08EE792E0A4
:101D2000FC014191CF0141113F5FF2E084389F07F0
:101D3000B9F731111092A60220937C0248E050E0DE
:101D400068EA72E08CE792E00E94D82A892BB9F009
:101D500088E0ECE7F2E0A8EAB2E001900D928A9503
:101D6000E1F7E091F703F091F803309741F002803A
:101D7000F381E02D309719F08CE792E009950895F2
:101D80001092B002EEE7F2E086E0DF011D928A9544
:101D9000E9F790E080E033D990E080E009D9109233
:101DA000A702B1CFAAE2B0E0E8EDFEE00C94752AFC
:101DB0008DE094E02091F100FC012193CF01F4E04B
:101DC00085319F07B9F780910E04833009F46FC005
:101DD000B8F4813009F447C0823009F4B3C080916F
:101DE000E80083FF87C280910D0490910E049A3021
:101DF00008F080C2E92FF0E0E65CF44D0C94D22AA2
:101E00008A3009F48EC08B3009F46EC0893039F7FE
:101E100080910D04813219F7809111049091120480
:101E20000297E8F68091E800877F8093E800809130
:101E3000E80082FF37C09091F3008091F200029792
:101E400031F48091F100813011F0863021F48091DD
:101E5000F100809342018091E8008B778093E80045
:101E60000E94A406BCCF80910D04813A09F0B7CF3F
:101E70008091E800877F8093E80080911104909121
:101E80001204892B59F468E081E094E070E007D8EF
:101E90008091E8008B778093E800A1CF60E090E02C
:101EA00080E0F4CF80910B048111C1CF98CF809155
:101EB0000D04813A09F093CF80911104909112049E
:101EC000892B09F08CCF8091E800877F8093E80010
:101ED0008091E80080FFFCCF809143018093F10066
:101EE0008091E8008E77BACF80910D04813209F09D
:101EF00076CF8091110490911204892B09F06FCF55
:101F00008091E800877F8093E8000E94A40681E02A
:101F100090910F04911101C080E08093430130DF64
:101F20005ECF80910D04813209F059CF8091E80095
:101F3000877F8093E8000E94A4068091100480931C
:101F400041014DCF80910D04813A09F048CF809135
:101F5000E800877F8093E8008091E80080FFFCCF55
:101F600080914101BBCF803899F0823809F0C2C11D
:101F7000809111048F70873008F0BCC18093E90014
:101F80008091EB0085FB882780F91092E90006C05C
:101F90008091090490910A04911182609091E80067
:101FA000977F9093E8008093F1001092F100809168
:101FB000E8008E779BC1882309F489C1823009F03B
:101FC00099C180910F0481118CC1809111048F708F
:101FD0002FEF280F263008F08DC18093E900209163
:101FE000EB0020FF7EC1933031F48091EB008062E2
:101FF0008093EB0076C19091EB0090619093EB00A1
:1020000021E030E001C0220F8A95EAF72093EA0030
:102010001092EA008091EB008860EACF81116AC1DA
:1020200010910F041F778091E3008078812B8093BB
:10203000E3008091E800877F8093E8000E94A40677
:102040008091E80080FFFCCF8091E300806880935E
:10205000E30082E0111183E080930B044BC18058B0
:10206000823008F047C180910F04909110048C3D9C
:1020700023E09207A1F583E08A838AE289834FB740
:10208000F894DE01139620E03EE051E2E32FF0E009
:1020900050935700E49120FF03C0E295EF703F5F3B
:1020A000EF708E2F90E0EA30C0F0C7968D939D932D
:1020B0002F5F243159F74FBF8091E800877F8093CD
:1020C000E8006AE270E0CE0101960E944F0780911D
:1020D000E8008B778093E8000DC1C096E7CF409170
:1020E000110450911204292F33272330310509F4AC
:1020F00044C078F52130310509F46FC08BE390E0DE
:10210000EAE8FAE02230310509F0F4C02091E80055
:10211000277F2093E8002091130430911404821744
:10212000930708F49C0140E02115310509F064C0D3
:10213000411162C08091E80082FDC9CF80910B04FB
:10214000882329F2853019F28091E80083FFF2CFCD
:10215000BECF21323105A9F12232310509F0CAC0C2
:102160004115510509F443C04130510509F0C2C081
:1021700082E390E0E4E1FAE0C9CF9927813091054C
:10218000C1F0009759F0029709F0B4C0E7EDFAE00A
:10219000E4918E2F90E0E7EDFAE007C0E7EFFAE078
:1021A000E4918E2F90E0E7EFFAE0009709F4A2C0E7
:1021B000ADCFE5EEFAE0E4918E2F90E0E5EEFAE0A7
:1021C000F4CF4115510571F04130510509F092C02D
:1021D00089E090E0E5EBFAE099CF82E190E0E5EC70
:1021E000FAE094CF89E090E0ECE9FAE08FCF84E464
:1021F00090E0E6E4FAE08ACF80910B04882309F4AA
:1022000066CF853009F463CF8091E80083FD5FCF0E
:102210008091E80082FD8ECF8091E80080FF84CF1E
:102220009091F3008091F2002115310519F088306A
:10223000910550F041E0089709F040E08091E800F6
:102240008E778093E80070CF44914093F1003196EF
:10225000215031090196E8CF803809F04BC08091B8
:10226000E800877F8093E80080910C048093F10060
:102270009ECE81113FC010910F041230D8F580918D
:10228000E800877F8093E80010930C040E94A40666
:10229000112311F084E005C08091E30087FDFACF9F
:1022A00081E080930B0442E061EC81E00E94C30670
:1022B00042E261EC82E00E94C30680910B0484300C
:1022C00021F081E08093440115C082E0FBCF809132
:1022D0000F04813079F481E0933009F080E080933D
:1022E0000A041092E9008091E800877F8093E8005B
:1022F0000E94A4068091E80083FF0AC08091E80054
:10230000877F8093E8008091EB0080628093EB00F0
:10231000AA96E3E00C94912A33DD88E19AE00FB6A7
:10232000F894A895809360000FBE90936000FFCF53
:10233000882311F095DAE7CC0895882331F0909145
:10234000B002982B9093B002DECC0895882371F1EF
:102350009CEF980F913A70F4EEE7F2E024E832E057
:102360009191891303C0DF0111971C922E173F072B
:10237000B9F7C9CC90E2980F983048F4877091E093
:1023800001C0990F8A95EAF7892F6ADAF2CF9BE5A7
:10239000980F933020F490E080E00C94FF07885A67
:1023A0008B3120F490E080E00C94D8070895CF930F
:1023B000C82F8823A9F08CEF8C0F813AF0F4EEE758
:1023C000F2E084E892E0DF012D91C21759F08A17FC
:1023D0009B07D1F76C2F8CE792E00E94BE0793DC3D
:1023E000CF9108952191C21303C0DF0111971C9270
:1023F0008E179F07B9F787DCEDCF80E28C0F88300E
:1024000068F4C77021E030E001C0220FCA95EAF7F6
:102410008091B002822B8093B002E1CFEBE5EC0F0C
:10242000E33040F4F0E0E15BFE4F808190E00E94F9
:10243000FF07D6CFC85ACB3198F6EC2FF0E0EE0F5D
:10244000FF1FEE5AFE4F808191810E94D807C8CFAE
:102450000F931F93CF93DF938B01EA0190910B04AD
:10246000943061F58093E9008FEF9091E8008150FE
:1024700095FD06C095ED9A95F1F700008111F5CF15
:102480008091E80085FF1AC00E947306811111C077
:102490008091E80085FD06C08091E8008E778093EA
:1024A000E800F2CFF80181918F018093F10021972C
:1024B00079F78091E8008E778093E800DF91CF91E3
:1024C0001F910F91089543E050E0BC0182E0C0CF1E
:1024D000CF93DF93EC0148E050E0BC0181E0B8DF2E
:1024E00088E0FE01A1E0B4E001900D928A95E1F749
:1024F000DF91CF9108953BB1377F2BB128604FB763
:10250000F8948EE493E0FC015191CF0168E02BB97F
:10251000000000C057FF3BB9550F000000C000C0CD
:1025200000C03BB900C06A9591F7F3E0803F9F0778
:1025300051F74FBF8FE594E00197F1F700C000001D
:102540000895B0E0A0E0E7EAF2E10C946E2A7C0185
:102550005B016A018091E70201E010E08A3010F42B
:102560000AE010E0C1E0D0E0B501C701F60109952D
:10257000811104C021960C171D072CF4CDB7DEB7CE
:10258000EAE00C948A2ACC9F9001CD9F300D300D4B
:10259000112490E080E045E34A95F1F700000196B0
:1025A00082179307C1F7E0CF1F93CF93DF93182FC4
:1025B000EB01FDDE209731F4812FC8DEDF91CF9152
:1025C0001F9108958FE99FE00197F1F700C0000087
:1025D0002197F0CFA2E0B0E0E0EFF2E10C946E2A98
:1025E0009A8389838AE0A82ECE0101960E94390839
:1025F0008823C9F1813009F050C0CE0101960E94B4
:102600003908813061F4CE0101960E94390870E0EA
:1026100060E0893311F460E570E0C6DFE5CF823019
:1026200031F4CE0101960E943908C1DEDDCF83303E
:1026300031F4CE0101960E94390888DED5CF84306E
:1026400081F4CE0101960E94390810E000E0482F85
:102650004053550B9A014A30510548F001151105B8
:1026600099F48111C1CF2296EAE00C948A2AA09EA7
:10267000C001A19E900D11248901080F191FCE01E0
:1026800001960E943908E3CFEFE9FFE03197F1F7B7
:1026900000C0000001501109E1CFE82FF0E0E55D36
:1026A000F44FB490282F26952695269530E0F90111
:1026B000E55EF44FE4908770F12C082E02C0F5948B
:1026C000E7940A94E2F7F1E0EF22FF24F901E55FD5
:1026D000F44FC490D12C082E02C0D594C7940A940C
:1026E000E2F741E0C422DD24F901E550F54F049101
:1026F00010E002C0159507958A95E2F70170112741
:10270000E114F10411F081EE52DEC114D10411F094
:1027100086EE4DDE70E060E08B2D46DFC114D10403
:1027200011F086EE13DEE114F10411F081EE0EDEFD
:102730000115110509F458CF70E060E08CE26DCF0F
:10274000AB0124E630E0BC0188E70E94262821E0A6
:10275000892B09F020E0822F089580914C039091FD
:102760004D03911103C091E089270895882361F0FA
:1027700062E070E082E19AE0E3DF811103C08091C2
:102780004C03089510924C0380914C03ECCFCF93EF
:10279000C0914C0380914D038823C9F00E94AF077C
:1027A000605A75418F4F9F4F609348037093490360
:1027B00080934A0390934B03C11107C062E070E01D
:1027C00080E19AE0BDDF811105C0C0914C038C2FE0
:1027D000CF91089581E080934C03F7CFAAE0B0E059
:1027E000E4EFF3E10C94662A0E94EF0960933F0343
:1027F00070934003809341039093420310914703E9
:102800001A8720914501213021F1222351F02230F5
:1028100009F46BC2233009F472C22A96E2E10C94E7
:10282000822A10923E016093430370934403809385
:1028300045039093460390914F04892F837019F0BC
:10284000892F869586958093470381E08093450183
:10285000E4CF80913D011A85181328C090914F0450
:10286000937020913C0130E081E09217130609F447
:1028700080E08170809340018091540490913F01E9
:10288000981739F080933F0140E060E080E00E94BB
:1028900015091A851130B1F0112351F0123009F4E5
:1028A00052C01F3F09F4E5C180E029C081E0E1CFBB
:1028B00080914001882319F140E060E080E00E94AF
:1028C0001509F2CF80913E010E94F308082F9983E9
:1028D0006091500470915104809152040E944C09FF
:1028E000F62EE72ED82E10E029810217D8F080911D
:1028F000F403882309F4B7C181E02B31A8F6909145
:102900003E019F5F90933E018111EAC182E0809376
:102910004501809140018111E3C11A851111D3C194
:1029200083E094CFF801E05CFD4F808190913F01FE
:10293000892331F02D2D4E2D6F2DC8010E940709DE
:102940000F5F1F4FD1CF80913E010E94F308682E88
:102950009983209143033091440390E080E040E16B
:10296000249F020E811D349F800D911D1124830F21
:10297000911D8A83009152046AEA7FEF802F0E94A2
:102980004C096D837E838F8320E6029FC001112452
:10299000D92E712C1A81105C1887A12CBB24B394FA
:1029A00050E8252E52E0352E412C512C862D1981D0
:1029B000611650F08091F403882309F454C181E03A
:1029C0001B3108F49CCF70CF8B3108F08C5F20E076
:1029D00040E060E0863390F490E0FC01E05CFD4F65
:1029E0002081322F3270C32E21FF0FC0609153041B
:1029F0007FEF80E50E944C09472F282FC3010E94DA
:102A000007092FEF621A720AD1CFFC01EE0FFF1FE8
:102A1000EC52FE4F10811B83880F991FFC01EC556F
:102A2000FE4F11A92B81203718F080EE821B8B837B
:102A30003B813E3120F4F12CE12C103268F07B8197
:102A400060E7769F70011124EE0CEF2CEE1CFF085E
:102A5000F19480E9E80EF11C8B81880F9A81890F2F
:102A60000E942D0920E8129F400111246AE06E9D0A
:102A700090016F9D300D1124232F33278058782F1C
:102A80007203A001739F500D1124841A950A812F9F
:102A9000880F880F1885810F0E942D091B8120E85F
:102AA000129FA00111246CE06E9D90016F9D300D6E
:102AB0001124232F33278058182F1203B001139F9E
:102AC000700D11249A01261B370B3C832B83C40104
:102AD00060E070E20E949D2A9F7135E0389FB0014E
:102AE000399F700D1124CB01892F992782958695E6
:102AF000877089877F71E02E10E080FF02C0ED2C87
:102B00001D2D603822E0720708F082C0398533231A
:102B100009F47CC08150982F9170998780FF76C00E
:102B2000FD2CD98690E080E0F7E0660F771F881FC4
:102B3000991FFA95D1F7A20191010E94B02A80E86D
:102B4000821B282FB501621B7109E69EC001E79E1A
:102B5000900D1124F29E800D911D1124892F99272B
:102B6000169FA001179F500D11241985219F400D1C
:102B7000511D1124452F552720E033E16B817C81C5
:102B8000261B370B21387FEF37070CF468C020383D
:102B900031050CF066C0205897FC10C060E876E163
:102BA0006819790961381FEF710744F030E8C32EC6
:102BB000C60E6038710514F0CC24CA94C21608F40D
:102BC0002C2DF501E21BF1094E9FB0014F9F700DB6
:102BD0005E9F700D1124AB011F81219F400D511D7F
:102BE00011241E81219F600D711D11248E9FD00123
:102BF0008F9FB00D9E9FB00D11241D81129FA00DBF
:102C0000B11D1124252F472F6B2FF8CEF02E8ACF20
:102C100060382DE17207F8F03985343051F08F5F5C
:102C2000982F91709987F02E80FF05C0FD2CD986D2
:102C300002C0F02E198660587D4190E080E0E7E008
:102C4000660F771F881F991FEA95D1F7A20191019E
:102C50000E94B02A77CF20E01987FE2C73CF20E0A6
:102C60009BCF2FEF99CF81E01981163308F447CE1F
:102C70001BCE8091430390914403A0914503B091F2
:102C800046032AE0B695A795979587952A95D1F79B
:102C900083709927AA27BB2782309105A105B1052A
:102CA000C1F083309105A105B105B1F040E060E0CD
:102CB0000197A105B10591F464E180E00E94150936
:102CC00082E08093450180913E0181500E94F3088B
:102CD000A4CD44E160E0F1CF44E164E184E1EECFD2
:102CE0001A85112309F499CDEECF1A8510933D0171
:102CF00080914F04837080933C01FDDB11CE809165
:102D00005704882351F048E050E067E170E08FE419
:102D100094E00E940B2B10925704C0904303D09074
:102D20004403E0904503F09046038091F303882329
:102D300079F00E94AF076C197D098E099F096031F7
:102D400071058105910508F468CD1092450165CDA6
:102D50000E94EF09F0CFEFE4F4E089E080838091F6
:102D6000460190914701A091480181839283A383FA
:102D70008AEA84838FEF858348E050E067E170E062
:102D8000CF010E940B2B1092570408959091F702E7
:102D900092FB222720F9281779F080FB92F9909373
:102DA000F7026091F6027091F70284E090E00E94D1
:102DB000342B82E00C94FB0C0895CF92DF92EF92BB
:102DC000FF921F93CF93DF9300D000D0CDB7DEB733
:102DD000C090DF02D090E002E090E102F090E202C9
:102DE0000E94AF076C197D098E099F0911E06436B6
:102DF00071058105910570F10E94EF096E5F7F4FAB
:102E00008F4F9F4F69837A838B839C8380911901B5
:102E100090911A0187539D4F4091180150E0453021
:102E2000510510F044E050E0BE016F5F7F4F0E94FB
:102E3000E52A83E090E00E94E229182F882351F0D0
:102E40000E94AF076093DF027093E0028093E1027B
:102E50009093E202812F0F900F900F900F90DF91CF
:102E6000CF911F91FF90EF90DF90CF9008958F92B8
:102E70009F92AF92BF92EF92FF921F93CF93DF93F7
:102E800000D000D00F92CDB7DEB77B0190E080E09C
:102E90000E94E229182F882309F482C0409103017F
:102EA00050E04115510511F041E050E060910401FE
:102EB0007091050167537D4FCE0105960E94E52A6A
:102EC0008090C1029090C202A090C302B090C40250
:102ED0000E94AF07681979098A099B096436710550
:102EE0008105910540F48AEC92E00E943D069D81A7
:102EF000891709F455C081E090E00E94E229811110
:102F00001EC010E08091BD029091BE02A091BF0250
:102F1000B091C002F70180839183A283B383812F94
:102F20000F900F900F900F900F90DF91CF911F9106
:102F3000FF90EF90BF90AF909F908F900895409139
:102F40000B0150E04530510510F044E050E0609135
:102F50000C0170910D0167537D4FCE0101960E94C7
:102F6000E52A8AEC92E00E943D069D818913C9CF33
:102F70000E94AF076093C1027093C2028093C302A4
:102F80009093C40289819A81AB81BC818093BD02F8
:102F90009093BE02A093BF02B093C00211E0B2CFE3
:102FA0008091CA029091CB02A091CC02B091CD0247
:102FB00089839A83AB83BC831111E4CFA3CFB0E0A4
:102FC000A0E0E5EEF7E10C946C2AC82F7B01D42F2A
:102FD0006901FB0180809180A280B3800E94AF07CD
:102FE000681979098A099B0964367105810591057B
:102FF00010F4DD2359F10C2E000CDD0BFE0183E0F3
:10300000EE0FFF1F8A95E1F7E050FF4F818192811B
:1030100087539D4F408150E00417150708F4A8011D
:10302000B6010E94E52ACE010E94E229C82F88231A
:1030300039F00E94AF07F701608371838283938325
:103040008C2FCDB7DEB7ECE00C94882AC1E0F8CF26
:10305000A9E0B0E0EEE2F8E10C94742A88E0EFE435
:10306000F4E0DE01119601900D928A95E1F7198640
:1030700049E050E066ED72E0CE0101960E94D82A48
:1030800041E0892B09F440E009E010E09E012F5F48
:103090003F4F63EE72E084E092DF2996E4E00C9407
:1030A000902A0F931F93CF93DF93EC0144E050E0FD
:1030B0006EEC72E00E94D82A41E0892B09F440E0CE
:1030C00004E010E09E0165EC72E082E078DFDF91C1
:1030D000CF911F910F9108951F920F920FB60F92EB
:1030E00011242F933F934F935F936F937F938F930D
:1030F0009F93AF93BF93CF93DF93EF93FF93D091C1
:10310000E900DF708091EC00C82FC17080FDC0E83D
:103110001092E9008091F000877F8093F00078940E
:103120000E94D20E1092E9008091F0008860809396
:10313000F000CD2BCF70C093E900FF91EF91DF91AC
:10314000CF91BF91AF919F918F917F916F915F913F
:103150004F913F912F910F900FBE0F901F90189598
:103160001F920F920FB60F9211242F933F934F93FC
:103170005F936F937F938F939F93AF93BF93EF93DF
:10318000FF938091E10082FF09C08091E20082FFFD
:1031900005C08091E1008B7F8093E1008091DA008F
:1031A00080FF24C08091D80080FF20C08091DA0089
:1031B0008E7F8093DA008091D90080FFAAC080E1E1
:1031C00089BD82E189BD09B400FEFDCF81E0809315
:1031D0000B0480910004811109C00E9454060E94D2
:1031E000F5068091E20084608093E2008091E10026
:1031F00080FF1AC08091E20080FF16C08091E2003B
:103200008E7F8093E2008091E20080618093E200F3
:103210008091D80080628093D80019BC85E08093AB
:103220000B0483E0809344018091E10084FF30C06F
:103230008091E20084FF2CC080E189BD82E189BDDC
:1032400099B5892F817090FFFBCF9091D8009F7D19
:103250009093D8009091E1009F7E9093E10090912F
:10326000E2009F7E9093E2009091E2009160909343
:10327000E20090910C04992309F451C094E09093DA
:103280000B0490910B04943009F482E08093440184
:103290008091E10083FF2CC08091E20083FF28C071
:1032A0008091E100877F8093E10082E080930B04AE
:1032B00010920C048091E1008E7F8093E100809158
:1032C000E2008E7F8093E2008091E2008061809333
:1032D000E20042E060E080E00E94C3068091F000DE
:1032E00088608093F00081E08093440180934301E3
:1032F000FF91EF91BF91AF919F918F917F916F91CE
:103300005F914F913F912F910F900FBE0F901F90A3
:10331000189519BC10920B041092000467CF90917D
:10332000E30097FD02C0982FAACF93E0A8CF78942E
:103330001F921FB61F9211248F939F93AF93BF9339
:103340008091FC039091FD03A091FE03B091FF03D7
:103350000196A11DB11D8093FC039093FD03A093E2
:10336000FE03B093FF03BF91AF919F918F911F9088
:103370001FBE1F9018952FB7F8948091FC03909171
:10338000FD03A091FE03B091FF032FBF0895EF92BC
:10339000FF920F931F93CF93DF93C42FD22FFC0183
:1033A00085818823A1F04093F203E5DF9093F10338
:1033B0008093F003C77081E001C0880FCA95EAF7D7
:1033C0000E949D11CDB7DEB7E6E00C948E2A1091D5
:1033D000F203141335C0E090F003F090F103CBDF5B
:1033E0008E199F098D37910558F5C0E2CD0F1D1735
:1033F000C1F080E2810F883048F4177081E0012E1F
:1034000001C0880F0A94EAF70E949811C83048F466
:1034100081E09D2F977001C0880F9A95EAF70E946E
:103420009D1170E060E0802FBFD8C83058F6D7708B
:1034300081E001C0880FDA95EAF70E949811C2CFA7
:10344000C77081E001C0880FCA95EAF7F6CFB0E0F7
:10345000A0E0EDE2FAE10C946E2A7C01FC0184818B
:10346000882309F4F4C061E0C7010E946A0DEC01F1
:10347000F7019581992309F44DC081818093190347
:1034800080818093180380E280933401D0931703E6
:10349000C09316039E0130522115304238F4F701D3
:1034A0008681807F09F43FC0FE010AC09E0130542E
:1034B0002115304110F5F7018681807FFE0109F06A
:1034C000FF27ED33F10528F4EA52FA4FE491E09337
:1034D0003401C335FEE7DF0708F0E5C4C1342EE749
:1034E000D20708F058C0C0343EE7D307E1F433DC1C
:1034F0000E94DD080E94F40528C09E013A9521151E
:103500003F4190F29E01205A32452032310508F3A6
:10351000FE01D7CFC3352EE7D207B9F070F4C0341F
:103520008EE7D80791F0FE01E851FC47E730F1053E
:1035300060F4EC5BF44D0C94D22AC4359EE7D907B5
:1035400021F0C535EEE7DE0771F7F7019581992384
:1035500009F473C41092F2039E01305723323105EF
:1035600008F055C484E090E00E94062B9093F70287
:103570008093F602FE01E150F047E232F10508F0D7
:103580008FC0E55BF44D0C94D22A8091530488508F
:1035900080935304AFCF8DE796E01CD8FE01E25430
:1035A000FE4789E796E0E131F10530F4E359F44D47
:1035B0000C94D22A85E796E00DD882E196E00AD8ED
:1035C000B2CF81E796E0F8CF8DE696E0F5CF89E6B9
:1035D00096E0F2CF85E696E0EFCF81E696E0ECCF7D
:1035E0008DE596E0E9CF89E596E0E6CF85E596E0C2
:1035F000E3CF81E596E0E0CF8DE496E0DDCF89E48E
:1036000096E0DACF8AE396E0D7CF8BE296E0D4CF8C
:1036100087E296E0D1CF83E296E0CECF8FE196E0CD
:10362000CBCF06E221EE41EE6AE17CE7C701AFDED7
:103630008091A502877059F0F7018581882339F0C0
:103640008091F70282FF03C082E00E94FB0CCDB79D
:10365000DEB7EAE00C948A2A07E225EE45EE6BE13C
:103660007CE7E4CF06E221EE40EE68E17CE7DECFC6
:1036700007E225EE44EE69E17CE7D8CF06E221EED1
:1036800042EE6CE17CE7D2CF07E225EE46EE6DE13B
:103690007CE7CCCF08E221E045EE6EE17CE7C6CFC7
:1036A0008091F60281608093F60295C08091F702C6
:1036B00088608093F7028FC08091F6028260F3CF1A
:1036C0008091F6028460EFCF8091F6028860EBCFA4
:1036D0008091F7028160EDCF8091F7028260E9CF9F
:1036E0008091F6028061DFCF8091F6028062DBCFAD
:1036F0008091F6028064D7CF0E94C00E8091F602BE
:103700008068D1CF8091F6028C60CDCF8091F70296
:103710008360CFCF8091F6028E7FC5CF8091F70274
:10372000877FC7CF8091F6028D7FBDCF8091F60253
:103730008B7FB9CF8091F602877FB5CF8091F7025A
:103740008E7FB7CF8091F7028D7FB3CF8091F60245
:103750008F7EA9CF8091F6028F7DA5CF8091F60252
:103760008F7BA1CF0E94C00E8091F6028F779BCFF6
:103770008091F602837F97CF8091F7028C7F99CF5B
:103780008091F60282FB992790F921E0922790FB25
:1037900082F990FB83F987CF8091F702982F90955B
:1037A00091708E7F892B90FB81F983CF9091F602E7
:1037B000892F8F7B96FF806476CF0E94C00E9091F8
:1037C000F602892F97FB87F980586DCF61E08EE074
:1037D00090E00E941A2B6091F6027091F70284E04B
:1037E00090E00E94342B0E94C00E22CF60E0EFCF09
:1037F0009091F602892F8F7E94FF806154CF909133
:10380000F602892F8E7F90FF81604DCF9091F70255
:10381000892F877F93FF88604CCF85E317C30E9471
:10382000EA0806CF882351F10E94CC0801CF8823F3
:1038300051F10E94BC08FCCE882351F10E94A608D9
:10384000F7CE882351F10E949008F2CE882351F1DF
:103850000E947E08EDCE0E94DD080E94F405E8CEAD
:1038600080914F04837011F01092450180914F04B4
:103870008C7F80934F04F1CF8823B1F20E94D4084B
:10388000D7CE8823B1F20E94C408D2CE8823B1F2E9
:103890000E94B108CDCE8823B1F20E949B08C8CE09
:1038A0008823B1F20E948708C3CE882329F00E94A2
:1038B0004F08BECE8823D9F30E946808B9CE9E0176
:1038C000205E324520323105A8F4911116C0CF7127
:1038D00081E090E09C0102C0220F331FCA95E2F7FD
:1038E000E901622F83E090E00E941A2BCE010E9432
:1038F0001F0D9ECE992309F43FC0CB353CE7D3077B
:1039000099F0CC358CE7D80731F0CA35ECE7DE0703
:1039100069F481E007C08091F70282FB882780F973
:1039200091E0892733DA84CE80E0FCCFC1303CE7D8
:10393000D30701F1C3308CE7D807B1F0C115DC47DC
:10394000D9F40E94C00E87E797E79093010880930F
:10395000000888E19AE00FB6F894A895809360007B
:103960000FBE90936000FFCF6FEF7FEF90E080E09D
:103970000E94342B0E948C11F701C081D1819923C0
:1039800009F44AC0CE010E94410C182F682FCE01C5
:103990000E94B00CBE01812F0E94FA0A0E94190BEE
:1039A000D82FC92FA82EF701C580B680B2949FE00A
:1039B000B9228091A502877001F10C2DCC20F1F085
:1039C0008C2F807F803469F080E28D0F8830A8F0E2
:1039D0008C2F807E803229F4F1E0FD1770F4BB203B
:1039E00061F08091F70282FF08C082E00E94FB0C28
:1039F0008091A502877001E009F000E0DC2ED294EE
:103A00008FE0D8222BE02D1508F466C0ED2DF0E0F4
:103A1000E258F44D0C94D22ACE010E947D0C182F4E
:103A2000B9CF1C2F1F70C07F11F01295107FCC20D2
:103A3000B9F0112369F080E28D0F883010F0A110E9
:103A400009C08091B002182B1093B0020E94830E1F
:103A50008D2F40C08091A702182B1093A702F6CF9C
:103A60008D2F0E94A6111123B9F1D05ED83010F02D
:103A7000A11004C0812F0E94300C06C010958091C7
:103A8000A70218231093A7020E94830E25C01C2FA3
:103A90001F70C07FC03211F01295107FAA2051F024
:103AA00031E0A31609F459C0CC2009F465C0BB204D
:103AB00051F1CECF8091F70282FD21C0CC20C9F018
:103AC000112339F08091B002182B1093B0020E949C
:103AD000830E80E00E94D711ED2DE850FF0B349744
:103AE00008F07DC10E94260860E0C7010E946A0DAF
:103AF000AECD80E00E94A611112371F3BBCFCC2084
:103B000099F0B11004C0812F0E949D11E5CF81E092
:103B1000B812E2CF8091A602912F98231917E1F2F3
:103B2000182B1093A602D8CFB110D6CF812F0E94A8
:103B300098119091A602812F892329F0812F8095D9
:103B400089238093A60280918502912F982321F2E8
:103B50001095182310938502BFCFCC2029F095E053
:103B60009B1508F4B9CFCFCFE4E0EB1508F4B4CF40
:103B7000812F0E949811B0CFBB20D1F3F9E3AF128F
:103B800027C12FEF37EE83E0215030408040E1F72E
:103B900000C000001DC18C2F86958695837069F04A
:103BA000813009F099CF8D2F9C2F9370C11002C0E6
:103BB00080E090E00E94D8078FCF8D2F9C2F9370CC
:103BC000C11002C080E090E00E94FF0785CF8C2FDB
:103BD000837009F03FC0C1107FCF4D2F42954695AD
:103BE0004770440F440F2D2F2F7030E0042E02C079
:103BF000220F331F0A94E2F790E080E0D4FF09C05F
:103C00008FE090E002C0880F991F4A95E2F78095F7
:103C10009095C695C695C370C23099F078F44091DE
:103C2000120350911303C13039F0822B932B84235C
:103C300095230E941F0D50CF242B352B822B932BC5
:103C4000F8CF822B932B20911203309113038227FC
:103C50009327EFCF8695CC2011F08C2F817088238D
:103C600009F43ACF4D2F429546954770440F440FC3
:103C70002D2F2F7030E0042E02C0220F331F0A9424
:103C8000E2F790E080E0D4FF09C08FE090E002C04E
:103C9000880F991F4A95E2F780959095C695C6952D
:103CA000C370C23099F078F4409114035091150319
:103CB000C13039F0822B932B842395230E94E60C8C
:103CC0000BCF242B352B822B932BF8CF822B932BCE
:103CD000209114033091150382279327EFCFCF70E3
:103CE000CC2029F08C2F0E94110D8D2F0DCF8D2F00
:103CF0000E9498118C2F0E94EB0CEECE8D2F92EF2C
:103D0000A91699F19A1570F0E0EFAE16D1F0F1EF27
:103D1000AF1691F0CC2009F456C0B11099CE8C2F7B
:103D20008F7127C023EFA21639F134EFA312F2CF1F
:103D30009091F70292FD2EC08C2F8F71CC20D9F27A
:103D400018C0CC2069F084E08B1508F4C5CECF7183
:103D500081E090E002C0880F991FCA95E2F7B8CFC2
:103D600095E09B1508F4B8CEF2CF8C2F8F71C1105F
:103D7000C2CF0E94110DB0CE90E080E0CC2009F4BB
:103D80009DCFCF7181E090E002C0880F991FCA9546
:103D9000E2F794CFCC2061F08C2F8F7192FFE9CFA6
:103DA000E8E08E9F9001112423602093A502E1CFCB
:103DB00081E00E94FB0CF1E0FB1508F08DCE82E063
:103DC0000E94FB0C89CEBB2039F0893309F4D9CE8F
:103DD0008D2F0E94A61180CE8C2F8F718CCF002347
:103DE00009F482CE8091A50280FD7ECEF701158276
:103DF0008695869586950E94110DC70128DB8091D6
:103E0000A5028695869586950E94EB0C6DCE8091D5
:103E1000B002C631FCE7DF0761F58A7A91E009F468
:103E200090E09093840269E2811165E38CE792E06F
:103E30000E94BE070E94830EFBCBC6312CE7D2073F
:103E400021F5809184028111E8CC89E2EEE7F2E06D
:103E500024E832E09191891303C0DF0111971C928D
:103E60002E173F07B9F7E6CF84E896E00E94EA12E2
:103E70006CCB8272FE01E052F847EB30F10508F09E
:103E80001ECDE657F44D0C94D22A8091B002827276
:103E9000FE01E054F847EF30F10508F010CDEB5685
:103EA000F44D0C94D22AC4358EE7D80709F46DCBB3
:103EB000D8F2C535FEE7DF0709F035CB8091530412
:103EC000885F992309F441CB63CBB0E0A0E0EBE637
:103ED000FFE10C94712A8091A402807F09F04FC009
:103EE0008091A302882309F44AC0E0914E0487E040
:103EF000D82E809115048E1709F441C00E2F10E0C2
:103F0000ED9DF0011124EA5EFB4F84818823E1F1ED
:103F1000D09EE001D19ED00D1124FE01EA5EFB4F40
:103F2000918180919F0298132FC0908180919E0271
:103F300098132AC08581811127C0E280F380809187
:103F4000A0029091A102E81AF90A60E08EE992E0DD
:103F50000E946A0D8DE7E816F104B0F48091A40286
:103F60008F7080618093A402C45EDB4F88818F7064
:103F7000806188838EE992E06ADA0E94370CCDB7BF
:103F8000DEB7E7E00C948D2AF8013196E770B1CFE7
:103F9000A4E1B0E0EEECFFE10C94692A8C0186E02C
:103FA000F801DE011F9601900D928A95E1F7F80164
:103FB000F480E5808EE9882E82E0982E8091A2021E
:103FC000811128C0F11003C0FF24F3941BC0EE2020
:103FD000F1F0C8010E94240DF82E8823C1F087E07B
:103FE000F801AEE9B2E001900D928A95E1F7809177
:103FF000A202813031F480919E0290919F020E9432
:10400000730C63DF8F2D6496EFE00C94852AC80152
:104010001EDADACFC280D380B090A3028091A002D2
:104020009091A1023601681A790ABB2009F4F1C007
:104030005080A18060E08EE992E00E946A0DFDE769
:104040006F16710408F0A0C0FF2009F4BDCF809165
:10405000A402382F307F20919F02F8019181311105
:1040600056C0FE2C291313C020919E029081291363
:104070000EC0E11045C08F7080618093A4028EE96C
:1040800092E0E5D98091A402F8018683BBCFE110CC
:1040900037C06A2D852D0E941E066A2D852D0E942F
:1040A0001E06E82E8111AECF5F86A88A8F8598897B
:1040B0000E94730C292F22952F70243058F49F7082
:1040C000223080F0992391F0F8019681907F71F46D
:1040D000FE2C98CF2A5F2F70223060F0C801B7D92C
:1040E000EB2CF6CF992311F0882391F3805E883072
:1040F00078F3F4CF803F60F3815F833078F7E8CFC7
:104100008091A40281608093A402F12C7BCF2913BB
:1041100014C020919E02908129130FC0E1100DC0A0
:104120008683C80194D987E0F801AEE9B2E0019036
:104130000D928A95E1F7FB2C65CFC8010E94240DF2
:10414000882309F464CFEE2009F461CF8091A402A2
:10415000803280F020919E0230919F02398728871B
:10416000DB86CA869091A2029C871D868E87CE012F
:1041700008966DD987E0F801AEE9B2E001900D92A2
:104180008A95E1F7A2DE20CF8091A402982F907F3C
:1041900049F48EE992E05BD987E0F40111928A95A7
:1041A000E9F7B3CFFF2009F40FCF20919F02F80168
:1041B0009181291310C020919E02908129130BC078
:1041C000E11009C08683C80142D987E0F401119249
:1041D0008A95E9F7B0CFC8010E94240D882309F41D
:1041E00016CFEE2009F413CF8091A402803208F498
:1041F000C1CF20919E0230919F023A832983DC82B5
:10420000CB829091A2029D831E828F83CE01019664
:10421000B0CF60E08EE992E00E946A0DFDE76F1674
:10422000710408F0B9CFFF2009F4CECEFE2CEE20A9
:1042300009F4EDCE90919F02F801818198132CC072
:1042400090919E028081981327C08091A002909146
:10425000A102C81AD90AFDE7CF16D104A0F49091A3
:10426000A40290FD10C0907F71F08091A402F8012B
:104270008683903F31F0982F907F905F8F70892BCD
:104280008683C801E4D887E0F801AEE9B2E0019086
:104290000D928A95E1F7B6CEC8010E94240D8111D6
:1042A00069CF8091A40281608093A402C801CFD815
:1042B000A9CEABE1B0E0EFE5F1E20C94752A4E8BAC
:1042C0005F8B688F798F8A8F9B8F91111092A702D5
:1042D0001D8A86E0FE017696DE011F9601900D9202
:1042E0008A95E1F78B89882351F061E0CE010F9622
:1042F0000E946A0D61E0CE010F960E946A0D87E070
:10430000FE013F96DE01189601900D928A95E1F725
:10431000CE0108963DDE81110CC087E0FE01389683
:10432000DE01119601900D928A95E1F78C8581113D
:104330000BC017E080914E0490911504891331C091
:104340006B96E3E00C94912A2091150430E0C901AA
:1043500001968770992740914E044817190699F0E5
:1043600097E0929FD001939FB00D1124AA5EBB4F9E
:10437000FE01319601900D929A95E1F78093150414
:104380000E94370CD6CF0E94C00E109215041092D6
:104390004E0487E0EEE9F2E0DF011D928A95E9F72D
:1043A000C8CF819FC00111248A5E9B4FF1DD882315
:1043B00039F280914E0490E001968770992780939E
:1043C0004E04B8CFACE0B0E0E8EEF1E20C946B2A1A
:1043D0008E010F5F1F4F88E0D8011D928A95E9F783
:1043E0008AE8C82E81E0D82EF12CE12CAA24A394CF
:1043F000B12C24E9822E21E0922EF60181916F01E9
:104400008F3F09F442C0F894E82FE295EF70F0E096
:1044100021A18F70A50102C0440F551F8A95E2F7B4
:10442000CA01922F982B91A392A18095892382A3F0
:10443000789400C0EEE8F1E0712C31E021912F3F3B
:1044400009F4A2C0A22FA295AF70B0E090968C9113
:1044500090E02F7002C0959587952A95E2F780FD30
:1044600093C0832F782A330F8E169F0639F7F601F3
:10447000319780818F3F11F00E94D80950EA5A95F8
:10448000F1F7F801EE0DFF1D70828FEFE81AF80AC0
:1044900094E0E916F10409F0B0CF48E050E0B8012B
:1044A0008CEE92E00E94D82A009741F028E0F801B3
:1044B000ACEEB2E001900D922A95E1F70091F50281
:1044C00010E008501D4F892B09F460C081E08093F3
:1044D000B5020E94BB199093B4028093B302F12CF1
:1044E000E090F303EE2009F4AEC019861A861B860D
:1044F0001C868091E7028A3008F06DC047E357E1DF
:10450000BE01675F7F4FC8010E94A112882309F492
:1045100089C041E558E1BE01675F7F4FC8010E9435
:10452000A112882309F47EC04DED56E1BE01675FFC
:104530007F4FC8010E94A112882309F473C048E28A
:1045400058E1BE01675F7F4FC8010E94A112882316
:1045500009F468C01092E7028091F40290E044E010
:1045600050E0BE01675F7F4F88509D4F0E94D82A60
:1045700021E02093BC02892B09F046C0E12C8E2D4E
:104580008F292C96EDE0C3C780E06CCFF090B50288
:10459000FF2009F4A4CFC090B302D090B4020E94CF
:1045A000BB198C199D09059708F499CF44E050E098
:1045B0006CEE72E0C801FCD7892B59F084E0ECEE78
:1045C000F2E0D80101900D928A95E1F71092B502C0
:1045D00087CFF12CFBCFC090B602D090B7020E94DB
:1045E000BB198C199D09843F914008F087CF8091B9
:1045F000BC02882319F2FE01399684E0DF011D9286
:104600008A95E9F71092BC02E091F402F0E0E850DC
:10461000FD4F89859A85AB85BC8580839183A28374
:10462000B383ADCF8091E7028F3F31F08F5F8093EE
:10463000E7028A3008F490CF0E94BB199093B7022A
:104640008093B602D4CFC090F402D12CF601E8508A
:10465000FD4F6F0184E0F801AAECB2E001900D92E9
:104660008A95E1F78AEC92E00E943D068093C902A8
:1046700084E0EEECF2E0D60101900D928A95E1F72C
:104680008090D2029090D302A090D402B090D50234
:104690008091B8029091B902A091BA02B091BB0288
:1046A00088169906AA06BB06B1F08092B8029092CD
:1046B000B902A092BA02B092BB020E94AF07861A5A
:1046C000970AA80AB90A8092E8029092E902A09299
:1046D000EA02B092EB0288E0E6EDF2E0AFE4B4E08B
:1046E00001900D928A95E1F74ACFA6E0B0E0EAE7A3
:1046F000F3E2FAC60E94BB198C018091B10290913D
:10470000B2028017910779F019821A820E94BB19B0
:10471000682F49815A81792F80E090E0CADD10939B
:10472000B2020093B1022696E4E0FAC61F921FB6C9
:104730001F9211248F939F93AF93BF938091FB039C
:10474000811113C08091FC039091FD03A091FE03A1
:10475000B091FF034196A11DB11D8093FC0390937E
:10476000FD03A093FE03B093FF03BF91AF919F9110
:104770008F911F901FBE1F901895CF93DF93EC0170
:104780000E94BB198C1B9D0BDF91CF910895CDB773
:10479000DEB72F970FB6F894DEBF0FBECDBF85B73B
:1047A000806885BF85B7806885BF84B7877F84BFF1
:1047B0000FB6F894A895809160008861809360009E
:1047C000109260000FBE80E890E00FB6F8948093DE
:1047D0006100909361000FBE81E08093440186EDFB
:1047E00099E090937B0280937A020E9454060E9483
:1047F000F5068091E20084608093E20078948091D5
:104800000B048823A1F01091E9001F709091EC0037
:10481000892F817090FD80E8182B1092E90080911B
:10482000E80083FD0E94D20E1F701093E90082E021
:1048300084BD93E095BD9AEF97BD80936E00109272
:10484000E8021092E9021092EA021092EB028091C3
:10485000D80080618093D8002AE12A95F1F700C042
:104860008091D900182F117080FD04C00E94540659
:1048700010920B041093F30381E081278093F403DB
:10488000809328011111BBD48091F40394E081112D
:1048900090E09093F50284E0891B8093F40284E910
:1048A0000E94D80986E60E94D80987E90E94D809A3
:1048B00086EC0E94D8090EE811E0A4E9EA2EA1E0F6
:1048C000FA2ED8018D918D018F3F11F00E94D809E9
:1048D000E016F106B1F788E0E8EFF2E0DF01282FFB
:1048E0001D922A95E9F7ECEEF2E0DF011D928A9520
:1048F000E9F790E080E08AD6833E9E4F79F163EE3F
:104900007EEF90E080E0B0D660E082E090E092D66A
:1049100081E090E0909313038093120361E083E0C1
:1049200090E088D660E074E184E090E09DD60E943B
:10493000AB1640E050E0BA018FE090E08DD640E049
:1049400050E0BA0183E190E087D648E050E067E1AB
:1049500070E08FE494E05FD61092570482E090E01C
:104960004DD68093080384E090E050D69093F702F0
:104970008093F60283E090E041D690E00E941F0D04
:104980000E944D0881E08093570448E050E067E1C1
:1049900070E08FE494E022D61092570480914F0487
:1049A0008C7F11F40E94AB1683E080933A0380E27F
:1049B00080935804DAD26BE070E081EF98E00E94B7
:1049C000A013882359F180913A0365E070E081FDDE
:1049D000AFC08CEE98E00E94A0138823F9F06DE040
:1049E00070E08AED98E00E94A0138823B9F00E943D
:1049F000AF07605A75418F4F9F4F60934803709384
:104A0000490380934A0390934B030E946E0E81E00A
:104A100080934D0380934C0310923B038091F303EA
:104A2000811101C0EFD389E291E09093F803809364
:104A3000F703EE24E394F12C80910B0410E402E1DF
:104A4000853009F4D0C0BEDC79E0A72E73E0B72E24
:104A5000E8EF8E2EE2E09E2E21E133E0D401F50155
:104A600091918D912E173F0709F4C7C09817C1F394
:104A70006090F30360E0C62E63E0D62E712CD40163
:104A80005D904D01F50131905F01351409F444C08A
:104A9000352410E000E044244394832D842199F1CF
:104AA000252C2420662009F1D6018C9190E09701F5
:104AB000002E02C0220F331F0A94E2F782239323B1
:104AC000892B99F4088779860E94BB199B878A876E
:104AD000B1E0BC8791E0211001C090E09D8748853E
:104AE00059856A857B858C85E4DB21100CC0C70164
:104AF000002E01C0880F0A94EAF7982F9095F601CE
:104B0000808189238083440C0F5F1F4F063011057D
:104B100021F6F501319750827394FFEFCF1ADF0A27
:104B200028E07212ACCF0E94EF09DD24D39469C053
:104B300087EE98E050CF80910B04843039F10E94C9
:104B4000EE130E94AD131092FB03E8E1F0E00FB604
:104B5000F894A895E09360000FBE1093600083B7AF
:104B6000817F846083BF83B7816083BF7894889599
:104B700083B78E7F83BF0FB6F894A89580916000AD
:104B8000886180936000109260000FBE1BDCE8EF2C
:104B9000F2E0A0E0B3E080E021912D9391E02111BB
:104BA00001C090E0892B23E0E030F207A9F78823C9
:104BB000D1F080910A048823B1F080E189BD09BD5C
:104BC00009B400FEFDCF8091D8008F7D8093D8007E
:104BD0008091E00082608093E0008091E00081FDA0
:104BE000FCCF0E94C00E80910B04853009F4A3CF46
:104BF0000E94C00E0E94260826CF981339CF75DD7B
:104C0000D12C0E94EE1380914D03882309F46EC0CD
:104C100000913C0310913D030E94BB19801B910B36
:104C2000C29708F444C00E94BB1990933D0380933F
:104C30003C038BE594E090935C0680935B06809147
:104C4000F303882309F461C0209114033091150304
:104C50008091120390911303822B932B0E94460D97
:104C6000182F80913301181711F10E946E0E4CEF2E
:104C700058E0163040F4E12FF0E0EE0FFF1FEC5F3C
:104C8000F64F45915491DE01119630E020E0CD01C0
:104C9000FA01E20FF31FE491ED932F5F3F4F2730AE
:104CA0003105B1F767E00E94910D109333018091B7
:104CB000590490915A04892BB9F580914C038823AB
:104CC000A9F00E94AF070091480310914903209179
:104CD0004A0330914B03601B710B820B930B6F3FA8
:104CE0007F4F8F4F9F4710F40E94AD13D1100E9449
:104CF000C7130E94260890913E03891709F49CCEA1
:104D000080933E030E94AF0797CE809111038111DB
:104D1000CECF0E946E0E65E089E491E00E94910D75
:104D200081E080931103C3CF80913B038111C5CFF4
:104D30000E94C7132091590430915A04211531055E
:104D400009F4BBCF80E0082F10E02701082E02C035
:104D5000440C551C0A94E2F7A20142235323452B2D
:104D600011F48F5FF0CF90913A0390FF96C0880FB7
:104D7000880F880F8093370110923A01895F8093E2
:104D8000380183E080933B0124E630E047E050E0C7
:104D900065E371E088E71CD1892B09F08ECFA8016B
:104DA00095E0440F551F9A95E1F780913A0380FFF3
:104DB00086C0EAE1F3E080E2DF011D928A95E9F71F
:104DC000E8E9F1E0FF87EE8704E911E087E0982E3B
:104DD000AE85BF852D91BF87AE87F80121908F01E9
:104DE000240E352E311CC101855A9B4F1C01E22F28
:104DF000F0E0E65EFC4F30E020E0792C721ACE2C19
:104E0000022E01C0CC0C0A94EAF7510190E0D501C2
:104E10008D915D018C21672D691B6770862E062E92
:104E2000000C770BB82F01C0BB0F8A94EAF78B2ECA
:104E30007195619571096770772701C086956A95AC
:104E4000EAF7882A8081882A80829F5F9830F9F665
:104E50002F5F3F4F31962830310579F6EE85FF857B
:104E6000EC59F14009F0B4CF04E610E020E230E064
:104E70004AE153E060E488E729D1892B09F01DCF8E
:104E8000409450948091590490915A044822592298
:104E900050925A044092590410CF8295880F807620
:104EA000809337019801369527953695279520935D
:104EB0003A01815E8093380120933B0165CF455ACA
:104EC0005B4F04E610E020E230E0D4CFEF92FF9297
:104ED0000F931F93CF93DF93182FEB011092BC0019
:104EE00084EA8093BC000E94BB197C018091BC00C5
:104EF00087FF27C08091B900887F883029F0809192
:104F0000B900887F803171F51093BB0084E88093ED
:104F1000BC000E94BB198C018091BC0087FF1CC0A3
:104F20002091B900287F90E080E0283189F081E06D
:104F300090E0203411F490E080E091958195910902
:104F400007C0C7011ADCC817D90780F68EEF9FEF9C
:104F5000CDB7DEB7E6E0E2C2C8010FDCC817D9075B
:104F6000D8F6F4CF8FEF9FEFF3CF1092B9008CE01B
:104F70008093B80008950F931F93CF93DF93EB01B5
:104F80008093BB0084E88093BC000E94BB198C0115
:104F90008091BC0087FF11C02091B900287F81E07B
:104FA00090E0283211F490E080E09195819591098C
:104FB000DF91CF911F910F910895CF3FDC0741F30F
:104FC000C801DBDBC817D90718F78EEF9FEFF0CFCA
:104FD000B0E0A0E0EDEEF7E27EC2782E5B016A0160
:104FE00089010E94BB194C01C1E0D0E004311105D8
:104FF00050F0C5E0D0E00F3F100729F0C80164E190
:1050000070E050D2EB01BE01872D60DF7C0197FF7D
:1050100008C00F3F1007B9F3C401AFDB0817190729
:1050200090F7E501CA0CDB1CCC15DD0511F0F7FE8D
:1050300008C084E98093BC00C701CDB7DEB7EDE0BE
:1050400066C2B801899197DF7C01EECFB0E0A0E0A5
:10505000EBE2F8E240C2782E5B016A0189010E940E
:10506000BB194C01C1E0D0E00431110550F0C5E09E
:10507000D0E00F3F100729F0C80164E170E012D2C0
:10508000EB01BE01872D22DF7C0197FF08C00F3F97
:105090001007B9F3C40171DB0817190790F7E50190
:1050A000CA0CDB1CCC15DD0511F0F7FE08C084E945
:1050B0008093BC00C701CDB7DEB7EDE028C2FE018A
:1050C0008491B80158DF7C012196ECCFB0E0A0E0DC
:1050D000EBE6F8E2FFC1682E762E5A0169010E94C4
:1050E000BB194C01C1E0D0E00431110550F0C5E01E
:1050F000D0E00F3F100729F0C80164E170E0D2D181
:10510000EB01BE01862DE2DE7C0197FF1AC00F3F46
:105110001007B9F3C40131DB0817190790F784E9C8
:105120008093BC00C701CDB7DEB7EEE0EFC1B80198
:10513000899121DF7C01CC16DD0689F3F7FEF7CFDC
:10514000EECFB801872D17DF7C01E501CA0CDB1C0F
:10515000F2CF8EE14A9B02C08150E1F74A9BFECF1D
:1051600008955A9880E28A95F1F75A9A0895FC01B9
:105170003BE03A95F1F798E020E080E031E040E153
:105180004A95F1F7880F4A9B02C08160232742E0CD
:105190004A95F1F7000040E14A95F1F7915079F70F
:1051A00090E19A95F1F799B132E03A95F1F7000064
:1051B00040E14A95F1F792FB992790F992272081D7
:1051C000920F90830895A1E0B0E0E8EEF8E28AC182
:1051D00019828C017C01E60EF11C0E151F0539F4B5
:1051E00081E09981911180E02196E6E097C1B1DFDD
:1051F000CE010196BCDFF80181938F01EECF529A68
:105200005A9A089552985A9AEA9AE9E6F0E080810B
:105210008F7C808308956150770B91E001C0990FD6
:105220006A95EAF720E031E0911108C0222391F05D
:105230005A9A80E28A95F1F75A980895492F48239F
:1052400039F05A9A232740E24A95F1F79695ECCF28
:105250005A98F9CF5A98EDCFFF920F931F93CF939F
:10526000DF93EC018C01060F111DC017D10721F44B
:10527000CDB7DEB7E5E053C1F99073DF68E08F2D5D
:10528000CADFF3CF1F920F920FB60F9211240F9324
:105290001F932F933F934F935F936F937F938F93BE
:1052A0009F93AF93BF93EF93FF93CF93DF930F92AF
:1052B000CDB7DEB719824DDFCE01019658DF082F3A
:1052C000069506950695282F22952570902F9570A6
:1052D000290F922F937026952695920F98279770F5
:1052E0008981982B09F058C0063008F055C080E13C
:1052F0008A95F1F75A9A529A82E08A95F1F700C09E
:105300005A9888E0089F80011124D801A050BF4F0F
:105310001696ED91FC9117973097A9F0609188014E
:105320007091890114962D913C911597260F371F86
:1053300011968D919C911297680F791F13964C913D
:1053400013978C910995F801E050FF4F6381662314
:1053500049F0209188013091890184819581820FE3
:10536000931F7ADFFEDE80E18A95F1F75A98529812
:105370005A9A80E18A95F1F7F801E050FF4F608179
:10538000662349F0209188013091890181819281C1
:10539000820F931F18DFDDDE0F90DF91CF91FF9119
:1053A000EF91BF91AF919F918F917F916F915F919D
:1053B0004F913F912F911F910F910F900FBE0F9022
:1053C0001F9018950F931F93CF93DF93EC010697CF
:1053D0000CF049C0F894529A5A9885E08A95F1F7F2
:1053E00000009C2F969595708C2F8570980F892FB3
:1053F00083709695969523E0CC0FDD1F2A95E1F7F3
:10540000980F8E01092BADDE00C068E0802F03DF0E
:1054100080E18A95F1F752985A9A4A9B1DC087E01D
:1054200090E04A991BC0FE01E050FF4F6381662364
:10543000F1F0209188013091890184819581820F5A
:10544000931FC1DE811113C0529A5A9A7894DF914A
:10545000CF911F910F91089500C0DFCF019729F4DC
:10546000529A5A9A789480E0F2CF00C0DACF71DE77
:1054700080E28A95F1F75A98529A80E18A95F1F77D
:10548000C050DF4F6881662349F020918801309138
:10549000890189819A81820F931FDEDE62DE789412
:1054A00081E0D5CFAA1BBB1B51E107C0AA1FBB1FC0
:1054B000A617B70710F0A61BB70B881F991F5A95A0
:1054C000A9F780959095BC01CD0108952F923F9248
:1054D0004F925F926F927F928F929F92AF92BF9204
:1054E000CF92DF92EF92FF920F931F93CF93DF93B0
:1054F000CDB7DEB7CA1BDB0B0FB6F894DEBF0FBE0D
:10550000CDBF09942A88398848885F846E847D8459
:105510008C849B84AA84B984C884DF80EE80FD805B
:105520000C811B81AA81B981CE0FD11D0FB6F894D1
:10553000DEBF0FBECDBFED01089597FB072E16F419
:10554000009406D077FD08D0ADDF07FC05D03EF40F
:10555000909581959F4F0895709561957F4F08951F
:10556000A1E21A2EAA1BBB1BFD010DC0AA1FBB1F67
:10557000EE1FFF1FA217B307E407F50720F0A21BD9
:10558000B30BE40BF50B661F771F881F991F1A9446
:1055900069F760957095809590959B01AC01BD0170
:1055A000CF010895EE0FFF1F0590F491E02D0994AF
:1055B000FB01DC0104C08D910190801921F4415060
:1055C0005040C8F7881B990B0895FB01DC0102C00D
:1055D00001900D9241505040D8F70895DC01CB0165
:1055E000FC01F999FECF06C0F2BDE1BDF89A3196F3
:1055F00000B40D9241505040B8F70895F999FECF8C
:1056000092BD81BDF89A992780B50895A8E1B0E0D0
:1056100042E050E0E5CFDC01A40FB51F41505040FF
:1056200040F0CB01840F951F2E9105D04150504082
:10563000D8F70895262FF999FECF92BD81BDF89A2B
:10564000019700B4021639F01FBA20BD0FB6F894C6
:10565000FA9AF99A0FBE08950396272FECDFEADF36
:10566000252FE9DF242FE7CF0196272FE4DFE2CFB4
:10567000F894FFCFB30FDB0F7A11DB0F7A110E1006
:105680002F107A112C113911321B381B111B2C1BB6
:105690003E1B441B4A1B8A1BFF1B921B5C1B601B8F
:1056A000961B641B9A1BA61B701BF81B741BAA1B62
:1056B000781BAE1BD61B7C1BB21BDD1B821BB81BD1
:1056C000C01B681B9E1B6C1BA21B861BBC1BCC1B20
:1056D000E61BF61B561B8E1B061CDA1AE11AE41A8F
:1056E000E71AEA1AED1AF01AF31AF61AF91AFC1A5E
:1056F000FF1A021B051B081B0B1B0E1B111D111D86
:10570000471D471DCB1D6C1D6C1D6C1DE71D6F1EBD
:105710007E1E7E1E0F1C121C3C1C171C411C1C1CD8
:10572000461C211C4B1C261C501C2B1C301C0F1C07
:10573000121C3C1C171C411C1C1C461C211C4B1C15
:08574000261C501C551C5A1CCC
:10574800000000010000000000000004010000004B
:10575800040500000000000004090000000000002B
:10576800090D00000000000001BB076812AD07AE7C
:10577800076312FF200021007F220003FFFF00FFC4
:1057880000000001000300FF78616C657869008102
:105798008283E200E900EA00B500B600B700CD0058
:1057A8008301CC008A019201940121022302240280
:1057B8002502260227022A02B300B4006F007000F7
:1057C8009F01CB019F02A002C902946697C6F4F517
:1057D800F6F7313300081018181008000031312985
:1057E8005A1B750A181712110A09191613100B08F3
:1057F8001A15140F0C07FFFFFF0E0D0633322D2C60
:10580800252434312E2B262335302F2A2722FFFF3B
:10581800FF2928215510320D101410263230553426
:105828005F3F552755155504440244134425503A03
:105838003C373223320D3200210321142125102A4E
:10584800101810070007001800298B10AE0DD0148F
:10585800D026AE308B34813F8B278B158B049C026E
:105868009C139C25903AA437AE23AE0DAE00BF031F
:10587800BF14BF25D02AD018D007E007E018E029C8
:1058880002020202020201040404040404010104E5
:1058980004040404040404040101010202020202D3
:1058A80002010404040404040101040404040404BB
:0A58B800040404010101FF050200D1
:00000001FF
