:10000000AFC50000CAC50000C8C500000C94432855
:10001000C4C50000C2C50000C0C50000BEC50000C8
:10002000BCC50000BAC500000C94CE170C948A170A
:100030000C949722B2C50000B0C50000AEC5000008
:10004000ACC50000AAC50000A8C50000A6C50000F8
:10005000A4C500000C94B418A0C500009EC5000003
:100060009CC500009AC5000098C5000096C5000018
:1000700094C5000092C5000090C500008EC5000028
:100080008CC500008AC5000088C5000086C5000038
:1000900084C5000082C5000080C500007EC5000048
:1000A0007CC500007AC5000078C500006D61676EF0
:1000B0006574200073797374656D20006E756D73BF
:1000C0002020200073796D626F6C7300636F6C6524
:1000D0006D616B0071776572747920000E0000000D
:1000E00000000000000000FC1FFC3FFC7F3C003CC7
:1000F00000FC3FFC7F3CF03CE03CE03CE03CF0FCA2
:100100007FFC3F000000000000000000000E00F037
:1001100000F000F000F000F0F0FFF8FF3CF01CF001
:100120001CF01CF01CF01CF01CF01CF01CF03CF04F
:10013000F8FFF0FF000000000000000000000E00CB
:10014000000000000000000000F03FF87F3CF01CC1
:10015000E01CE000E000E000E000E01CE01CE03C0F
:10016000F0F87FF03F000000000000000000000EEB
:100170003C003C003C003C003C00FC3FFC7F3CF071
:100180003CE03CE03CE03CE03CE03CE03CE03CE08F
:100190003CF0FC7FFC3F000000000000000000007D
:1001A0000E00000000000000000000F03FF87F3C5F
:1001B000F01CE01CE0FCFFFCFF00E000E01CE01C89
:1001C000E03CF0F87FF03F0000000000000000007D
:1001D000000000000000000000000000000000001F
:1001E000000000000000000000000000000000000F
:1001F00000000000000000000000000000000000FF
:1002000000000E00000000000000000000FC3FFCA9
:100210007F3CF03CE03CE03CE03CE03CE03CE03C4F
:10022000E03CE03CF0FC7FFC3F3C003C003C00FC40
:10023000FFFCFF00000000000000000000000000C4
:1002400000000000000000000000000000000000AE
:10025000000000000000000000000000000000009E
:100260000000000004000000F000F000F0000000BA
:100270000000F000F000F000F000F000F000F000EE
:10028000F000F000F000F000F000F00000000000CE
:100290000000000000080000000F000F000F000029
:1002A0000000000F000F000F000F000F000F000FE5
:1002B000000F000F000F000F000F000F000F000FC6
:1002C00000FF00FE00FC0E00F000F000F000F00067
:1002D000F03CF078F0F0F0E0F1C0F380F700FF00C0
:1002E000FF80F7C0F3E0F1F0F078F03CF0000000A0
:1002F000000000000000000400F000F000F000F03A
:1003000000F000F000F000F000F000F000F000F06D
:1003100000F000F000F000F000F000F000F000004D
:1003200000000000000000001000000000000000BD
:10033000000000FC3FFE7FFFFFCFF3CFF3CFF3CFF2
:10034000F3CFF3CFF3CFF3CFF3CFF3CFF3CFF3006C
:100350000000000000000000000E0000000000008F
:1003600000000000F03FF87FFCFF3CF03CF03CF068
:100370003CF03CF03CF03CF03CF03CF03CF03CF01D
:10038000000000000000000000000E00000000005F
:100390000000000000F03FF87F3CF01CE01CE01C77
:1003A000E01CE01CE01CE01CE01CE03CF0F87FF0EE
:1003B0003F000000000000000000000000000000FE
:1003C000000000000000000000000000000000002D
:1003D000000000000000000000000000000000001D
:1003E0000000000000000000000000000E000000FF
:1003F00000000000000000FC3FFC7F3CF03CE03CC3
:10040000E03CE03CE03CE03CE03CE03CE03CF0FC3C
:100410007FFC3F3C003C003C003C003C000A0000EC
:100420000000000000000000C0CFC0FF80FF00FF00
:1004300000F000F000F000F000F000F000F000F03C
:1004400000F000F0000000000000000000000E00BE
:10045000000000000000000000F03FF87F3CF000CA
:10046000E000E000F0C0FFFC0F3C001C001C003C62
:10047000F0F87FF03F0000000000000000000008DE
:100480000000007800780078007800FF00FF00FF8F
:10049000007800780078007800780078007800789C
:1004A000007F007F007E00000000000000000000D0
:1004B0000E000000000000000000003CF03CF03C9A
:1004C000F03CF03CF03CF03CF03CF03CF03CF03CCC
:1004D000F0FCFFF87FF03F0000000000000000008B
:1004E000000000000000000000000000000000000C
:1004F00000000000000000000000000000000000FC
:1005000000000000000000000000000000000000EB
:1005100000001000000000000000000000CFF3CF3A
:10052000F3CFF3CFF3CFF3CFF3CFF3CFF3CFF3CFBB
:10053000F3DFFBFFFFFE7FFC3F0000000000000038
:100540000000000E000000000000000000001CE0A1
:100550001CE038707038E01CC00F80078007C00FA7
:10056000E01C703838701CE01CE000000000000047
:10057000000000000E000000000000000000003C31
:10058000F03CF03CF03CF03CF07878F03CE01FC0F0
:100590000F8007800780078007800780078007801B
:1005A0000780FF00FE0000000000000000000000C7
:1005B000000000000000000000000000000000003B
:1005C000000000000000000000000000000000002B
:1005D0000000000000002020202061626364656646
:1005E0006768696A6B6C6D6E6F7071727374757623
:1005F0007778797A31323334353637383930524575
:1006000042545F2D3D5B5D5C233B27602C2E2F20E9
:10061000202001043130307C0103E00103E60001B9
:10062000012A0001010600010128000102E3010185
:1006300050010435307C0103E3000102E301014F66
:10064000010435307C0103E30001010A00010117B8
:100650000001010900010108000101070001010E6C
:100660000001010D0001010C000101180001015100
:10067000000101520001014F00010150000102E0A0
:100680000102E6000102E30102E601013101043149
:1006900030307C0103E60103E3002B0014001A0054
:1006A000080015001700E00004001600070009000C
:1006B0000A00E1001D001B000600190005000000F3
:1006C00000000000E30022522C002A001300120058
:1006D0000C0018001C00340033000F000E000D0049
:1006E0000B00E50038003700360010001100000054
:1006F00000000000E600235228002B0014001A001E
:10070000090013000A00E00004001500160017009D
:100710000700E1001D001B00060019000500000095
:1007200000000000E30022522C002A0033001C00CD
:1007300018000F000D00340012000C00080011001A
:100740000B00E50038003700360010000E000000F6
:1007500000000000E6002352280029001E021F02AC
:10076000200226022702E0002102220223022F009B
:100770003000E1002402250231022F023002000085
:1007800000000000010001002C004C0000000000EF
:1007900035022E022D0200000000000035002E0060
:1007A0002D000000000000000000000031000000EB
:1007B00000000000E6002452280029001E001F004F
:1007C000200027000000E0002100220023006552E5
:1007D0000000E100240025002600000000000000C9
:1007E00000000000E30024522C004C000000000038
:1007F000520000000000000000004F0051005000B7
:1008000000000000000000000000000000000000E8
:1008100000000000E60001002800407E4678457890
:10082000000000000000427848784778000000008F
:10083000000043784A784978547E557E00000000D5
:100840000000000000000100000043004000000024
:100850000000000000004400410000000000000013
:100860000000450042000000000000000000000001
:10087000000000000000010000006552537E4A7E27
:1008800000004C7E000040520000497E4B7E4D7EB1
:100890000000415200000000000000004F7E0000F8
:1008A0000000000000000000517E527E0000467EE5
:1008B000437E457E000000000000427E517E417E66
:1008C000000000000000487E447E477E4E7E00000F
:1008D0000000000000000000507E00DA0281FFD915
:1008E000F1DB20A4A62EAF00A0C0D30000A1C8D386
:1008F0000000AED580A81F408D14200020202020AD
:1009000020202000D400CC00C400BC00B400AC0007
:1009100000010101010101010101020202020202C2
:100920000202020303030303030303040404040495
:10093000040405050505050606060606070707075C
:100940000708080808090909090A0A0A0B0B0B0C11
:100950000C0C0D0D0D0E0E0E0F0F0F1010111111AE
:10096000121213131414151516161717181819192F
:100970001A1A1B1B1C1D1D1E1E1F20202122222394
:100980002424252626272829292A2B2C2D2D2E2FD5
:1009900030313232333435363738393A3B3C3D3EEC
:1009A0003F404142434445464748494A4C4D4E4FDB
:1009B00050515354555658595A5B5D5E5F6162649D
:1009C000656668696B6C6D6F7072737577787A7B2A
:1009D0007D7E8082838587888A8C8E8F9193959681
:1009E000989A9C9EA0A2A3A5A7A9ABADAFB1B3B5A1
:1009F000B7BABCBEC0C2C4C6C9CBCDCFD1D4D6D87D
:100A0000DBDDDFE2E4E7E9EBEEF0F3F5F8FAFDFF1A
:100A100000AF00AE05010906A101050719E029E7AD
:100A20001500250195087501810295017508810160
:100A30000507190029FF150026FF00950675088196
:100A40000005081901290515002501950575019175
:100A500002950175039101C009022200010100A065
:100A6000FA0904000001030101000921110100013C
:100A70002244000705810308000112010002000062
:100A80000008534601000100010200010C0343006D
:100A90006F0072006E0065000000100366006F00BA
:100AA0006F007300740061006E000000040309040D
:100AB0000000000000000000000000000000000036
:100AC0000000000000000000000000000000000026
:100AD000000000007E0F00D4FFFFFFC70000007879
:100AE00000000000000000002A2B28000000000089
:100AF00000000000000000000000002900000000CD
:100B00002C1E3420212224342627252E362D37383A
:100B1000271E1F202122232425263333362E373843
:100B20001F0405060708090A0B0C0D0E0F10111201
:100B3000131415161718191A1B1C1D2F3130232DCD
:100B4000350405060708090A0B0C0D0E0F101112CB
:100B5000131415161718191A1B1C1D2F3130354C7C
:100B600011241FBECFEFDAE0DEBFCDBF12E0A0E060
:100B7000B1E0EAE4F5E502C005900D92A234B107B8
:100B8000D9F726E0A2E4B2E001C01D92A132B2077B
:100B9000E1F70E94C8220C94392A32CA80911B04C2
:100BA000816080931B04089590911304937051F019
:100BB0008093140460931504493708F048E7409384
:100BC0001604ECCF089590911304937041F08111B5
:100BD00007C094609093130410924501DFCF0895ED
:100BE000833010F09860F6CF880F880F982BF2CFE3
:100BF000482F209112049091D90357E0291302C085
:100C000080E0089530E0529FF001539FF00D1124D1
:100C1000E652FC4F8181681306C08081481303C0EF
:100C200085818111EECF2F5F3F4F2770E7CFFC0109
:100C3000AC014C5F5F4F8FEF91E32191822728E059
:100C400030E087FF09C0880F892721503109C9F793
:100C5000E417F50791F70895880FF7CF982F909331
:100C6000E900891779F05091EC002091ED00409156
:100C7000F00021FD0AC09F5F973089F78093E9005B
:100C800081E00895562F40E022E03091EB003E7F56
:100C90003093EB003091ED003D7F3093ED003091CB
:100CA000EB0031603093EB005093EC002093ED00AB
:100CB0004093F0002091EE0027FDDDCF80E0089505
:100CC000E8EDF0E080818E7F80831092E200109248
:100CD000DA001092E100A0EEB0E08C9181608C937C
:100CE00080818F77808319BCA7EDB0E08C918E7FD7
:100CF0008C9380818F7E80831092C4030895B0E02E
:100D0000A0E0E5E8F6E00C947129C8EDD0E0888118
:100D10008F7E8883E7EDF0E080818160808384E0CE
:100D200082BF81E08093C40388818E7F888302EE36
:100D300010E0F80110821092DA0081EEC82ED12C5A
:100D4000F601108288818F77888388818068888304
:100D500088818F7D888319BC1092D8031092CF03AD
:100D60001092CE031092CD0390EEE92EF12CF701F4
:100D700080818B7F808388818160888360E080E0D0
:100D80006DDFF60180818E7F8083F8018081816034
:100D90008083808188608083F70180818E7F80835B
:100DA000888180618883CDB7DEB7E8E00C948D2917
:100DB0002091E4003091E50095E6A9012091EC0036
:100DC000822F817020FF06C08091E80080FF06C05E
:100DD00080E008952091E80022FD1AC08091D80398
:100DE000882389F0853089F08091EB0085FD0FC064
:100DF0002091E4003091E50042175307F9F2915039
:100E0000E1F684E0089582E0089583E0089581E0AA
:100E100008958091D00387FF13C08091E80082FF7E
:100E200006C08091E8008B778093E80004C0809131
:100E3000D8038111F2CF08958091D8038823D9F384
:100E40008091E80080FFF8CF8091E8008E77ECCFAA
:100E5000FC018091D6039091D70386179707A0F0E5
:100E60006115710529F49091E8009E779093E80050
:100E700090E06115710551F4911108C08091E8006E
:100E800082FF34C080E00895BC01F2CF8091D80386
:100E90008823C1F18530C1F18091E80083FD30C025
:100EA0008091E80082FDEACF8091E80080FFE1CFE9
:100EB0008091F3002091F200382F6115710519F02F
:100EC0002830310558F091E02830310509F090E0E4
:100ED0002091E8002E772093E800CBCF819180937A
:100EE000F100615071092F5F3F4FE7CF8091D80328
:100EF000882341F0853041F08091E80083FFBECF28
:100F000081E0089582E0089583E0089508950895AA
:100F100008952FB7F8946091C0037091C103809138
:100F2000C2039091C3032FBF089580914201089599
:100F30009C01FC0132969FEF80E04191461751F0F1
:100F40009F3F19F4411101C0982F8F5F8630A9F798
:100F50009F3F09F40895290F311D97FD3A95F90136
:100F6000628308958091BB03882369F0E091BD03FB
:100F7000F091BE03309739F00190F081E02D309769
:100F800011F00995089580E00895DC01ED91FC9140
:100F9000119784913196ED93FC930895FC01EE0F27
:100FA000FF1FE80FF91FEA5EFC4F61834083228335
:100FB0000895539A0895E0911804EF3F89F0E530C1
:100FC00069F0E23019F0E1110DC0E3E0E150F0E02A
:100FD000E35CFD4F808180931804E0CDE1E0F6CF23
:100FE000E3E0F5CFE0E0F3CFE0911804EF3F61F0EC
:100FF000E53061F0E23061F4EF5FF0E0E35CFD4F7B
:10100000808180931804CACDE0E0F6CFE1E0F4CF10
:10101000E0E0F3CFE3E1F4E024813AE0231B08F4BD
:1010200020E02483BBCDE3E1F4E024813AE0230F08
:1010300008F42FEF2483B2CDE3E1F4E0438124E010
:10104000421B08F440E08181628190E0ADCDE3E194
:10105000F4E0438124E0420F08F44FEF8181628184
:1010600090E0A2CDE3E1F4E0628124E0621B08F4A9
:1010700060E08181438190E097CDE3E1F4E062811B
:1010800024E0620F08F46FEF8181438190E08CCD02
:10109000E3E1F4E08181438162818850990B84CD42
:1010A000E3E1F4E0818190E04381628108967CCDA8
:1010B0008091130486958695815009F482E083CD52
:1010C00080911304869586958F5F833008F081E0C8
:1010D0007ACD80911304837011F4109245018091B0
:1010E00013048C7F8160809313040895E3E1F4E09E
:1010F000808191E089278083109245014FCD9BE04C
:10110000899F802D1124980F973308F096E3209142
:10111000BC03222321F09C3128F09BE108958B3100
:1011200008F48BE108953091BC03332321F08B3117
:1011300091052CF008958B31910514F04B972ECF2B
:101140000895FF920F931F93CF93DF93182F062FCD
:10115000F42ED0E0C0E02F2D402F612FCE01E3DF31
:101160002196C633D105B9F7CDB7DEB7E5E00C94CB
:101170009029E82F86FDE0952E2F2F7086FD2F5F9A
:10118000E695E695E695E670F0E0ED59FE4F918123
:10119000929F902D212D112492959F702295207F52
:1011A000922B2081920F87FD919580E8890F0895F9
:1011B000B0E0A0E0EEEDF8E00C9471299B01E82F7F
:1011C000F0E0E05FF64F311109C0E4918E2F7E2FE1
:1011D0006E2FCDB7DEB7E8E00C948D29E32EF12C0D
:1011E000E491FE2F0E2F10E046E0649FC001112411
:1011F000CFEFD0E0BE010E945329AB01822F90E0D7
:10120000880F991F25E5249FB001259F700D11249B
:10121000861B970B982F990F980FBE016E197F09A7
:10122000609FD001619FB00D709FB00D11248B2F76
:10123000399F90011124232F3327BE01621B730BAA
:10124000609F9001619F300D709F300D11246E01E1
:10125000C91AD108CE9CB001CF9C700DDE9C700DD8
:101260001124672F7727C61BD70BC09F7001C19F22
:10127000F00CD09FF00C11247F2D42305105A1F0CD
:1012800050F44115510509F4A3CF4130510581F0C7
:101290007B2F832F9DCF4430510569F080F046307D
:1012A000510509F495CFF4CFEB2F8F2D7F2F90CFE1
:1012B0007E2FE32F8DCFEF2D7B2F8F2F89CF732F95
:1012C000EB2FFBCF80E00895F894E82FE295EF70C4
:1012D000F0E031A1282F2F7081E090E001C0880F4D
:1012E0002A95EAF7982F9095932391A392A1892BA1
:1012F00082A3789408950F931F938091BB03882352
:1013000021F007DE1F910F91089503DE0091B002D6
:101310001091B1022091B2023091B302600F711F9F
:10132000821F931FEFCF9091BE0292FF10C041E049
:10133000282F2471243009F040E031E0282F287153
:10134000283009F030E0431711F02CE0822793FF9A
:1013500010C041E0282F2471243109F040E031E031
:10136000282F2871283109F030E0431711F02CE0C4
:1013700082273091BF0230FF10C051E0282F217129
:10138000213009F050E041E0282F2871283009F081
:1013900040E0541711F029E0822731FF10C041E0EE
:1013A000282F2171213109F040E031E0282F2871E8
:1013B000283109F030E0431711F029E0822794FF2B
:1013C00002C083FD877E089582389105B9F1B0F49B
:1013D0008133910509F47DC048F48932910509F4FF
:1013E0006DC08A32910509F47BC00895853391055B
:1013F00009F45FC08933910509F10895833E910591
:10140000D9F138F4803E910529F1823E910579F1B8
:101410000895863E9105D9F1873E910509F43EC0B5
:10142000843E910541F52091BF0221FF24C08091A7
:10143000BE0284FD19C087EE90E008952091BE029F
:10144000237009F05AC02091BF0223FF14C089E223
:1014500090E008952091BE0220FD38C03091BF0277
:1014600030FF09C024FF43C090E080E00895209140
:10147000BE0222FDF7CF08952091BE0222FD3AC0A0
:101480003091BF0230FD39C024FFF5CFEDCF209160
:10149000BE0223FFF0CF24FDE7CFCDCF2091BE02C7
:1014A00023FD2EC03091BF0231FFEECF84EE90E0DD
:1014B00008952091BE0225FFDECFC9CF2091BE0244
:1014C00025FD21C02091BF0223FFD5CF89E390E005
:1014D000D2CF2091BE0226FFCECF8AE290E00895BF
:1014E0002091BE0226FFC7CF81E390E0089583EEEE
:1014F00090E0089582EE90E0089580EE90E00895E7
:1015000086EE90E0089585E390E00895972F783077
:10151000B8F46630A8F48630B0F470E026E0929F0C
:10152000600D711D1124FB0190E3899FE00DF11DF9
:101530001124EE0FFF1FE656F94F859194910895FF
:1015400080E090E0089581E0FCCF1F93CF93DF937C
:101550003BDFEC01C11582E5D80708F03DC0C1159D
:1015600090E5D90708F0BEC0C83ED105C0F4C03E22
:10157000D10580F4C53AD10548F4C430D10550F402
:10158000C130D10539F0D0E0C0E004C0CD3CD10578
:10159000D0F3D065CE01DF91CF911F910895C11591
:1015A00080E4D80708F050C0C11590E2D90708F0D0
:1015B000B3C0C11581E0D80730F38D2FB4DE182FEA
:1015C000CE01992701DFC12FD0E0DC2FCC27CC271B
:1015D000DF71C82BD92BDECFC03892E5D907A8F42C
:1015E000C03682E5D80708F061C0C03492E5D9075B
:1015F00008F047C0C03282E5D80778F1CF71D0E05B
:10160000DC2FCC27C16FD06AC5CFC03C92E5D9078B
:1016100078F48C2F8F71C03AD24508F45CC083DE19
:10162000C82FD0E0DC2FCC27CC27DF71D062B2CF1F
:10163000C03E82E5D80708F0A6CFDC2FCC27CC2708
:10164000DF71C06FD06AA6CFCE019927BDDECC274F
:10165000DF70C82BD92BD06A9DCF2C2F26952695CD
:1016600090E2299F900111248C2F8370C1E0D0E07B
:1016700002C0CC0FDD1F8A95E2F7C22BD32BDD68A9
:1016800089CF2C2F26952695277080E2289F9001E0
:1016900011248C2F8370C1E0D0E002C0CC0FDD1F7D
:1016A0008A95E2F7C22BD32BDC6874CF2C2F2695BA
:1016B0002695277090E2299F900111248C2F83702A
:1016C000C1E0D0E002C0CC0FDD1F8A95E2F7C22B4B
:1016D000D32BDA685FCFC82FD0E0DC2FCC27C46FC4
:1016E000D06A58CF8C2F8F711EDE55E0D695C795E6
:1016F0005A95E1F7CF70D0E0DC2FCC27282F30E0CF
:1017000084FF06C044E0220F331F4A95E1F73327D8
:10171000C22BD32BD0693ECF8D2F8F7104DE182FB3
:10172000CE01992751DEC12FD0E0DC2FCC27CC276A
:10173000DF71C82BD92B7ACF8095909178029823AE
:10174000909378020895809112049091D903981390
:1017500001C008958F5F8770FACFB0E0A0E0E3EB9F
:10176000FBE00C9470297C010091DC021091DD02F9
:101770008091DA029091DB02082B192BCFE0D0E0A8
:10178000CC24C394D12CBC2EC6010C2E02C0880FD1
:10179000991F0A94E2F780239123892B49F421971A
:1017A00090F7B12C8B2DCDB7DEB7E9E00C948C29E6
:1017B000B7018C2FABDEC9DE019789F3F3CFCF934E
:1017C000DF93EC01CADFBE01A1DEBFDEDF91CF9166
:1017D0000895983078F5863068F5E82FF0E086E0D7
:1017E000989FE00DF11D11249E2F977083E0F695D0
:1017F000E7958A95E1F7EE0FFF1FEE0FFF1FE25B03
:10180000FD4F50E040E080E0219130E0092E02C021
:10181000369527950A94E2F721703327042E01C0EC
:10182000220F0A94EAF7822B4F5F5F4F4430510535
:1018300059F7089580E00895983098F5863088F536
:10184000E82FF0E086E0989FE00DF11D11248E2F27
:10185000877041E001C0440F8A95EAF783E0F6956E
:10186000E7958A95E1F7EE0FFF1FEE0FFF1FE25B92
:10187000FD4F30E020E070E05191DF011197CB0186
:10188000022E02C0969587950A94E2F781708195A1
:101890008527842385278C932F5F3F4F2430310584
:1018A00059F708959093DD028093DC02089521E0BA
:1018B00030E002C0220F331F8A95E2F72095309561
:1018C0008091DC029091DD0282239323EBCF9091F3
:1018D0006D028095892380936D02282F277061F413
:1018E000891751F09091BF0292FF06C086958695A8
:1018F0008695DDDF10926D02089521E030E002C090
:10190000220F331F8A95E2F78091DC029091DD026D
:10191000822B932BC7CF9093DB028093DA0208953A
:10192000FC0124812223B9F08081918148DF9295C6
:101930009F70963091F058F4925F9F70923058F4F7
:10194000803F19F030F4883E30F481E008959A5FCA
:10195000F4CF843FD1F380E00895883EB0F3813F17
:10196000D1F7F3CF292F332740E02115310511F0AE
:10197000C90148E09C0164E0369527956A95E1F736
:101980002115310511F04C5FC9019C013695279551
:10199000369527952115310511F04E5FC9019695B1
:1019A0008795892B09F04F5F842F0895A6E0B0E05A
:1019B000ECEDFCE00C94762926E0FC01DE011196AA
:1019C00001900D922A95E1F7FC01258189819A8188
:1019D000222381F0662371F0C0DE182F682F8981E1
:1019E0009A812ADF69817A81812F90DD2696E3E052
:1019F0000C949229EEDE182FF5CFA8E0B0E0E3E0DA
:101A0000FDE00C94672968878E839F83DC0190E05A
:101A100030E020E071E3B82E4D915FE9540F5A3168
:101A200078F44156550B749FF001759FF00D112409
:101A3000E452FF4FE491EE2319F02E0F311D9F5F0A
:101A40004A2F481B6884461538F3992309F462C06D
:101A5000923038F046E0949F200D311D112426501D
:101A6000310980E890E0BC01621B730B9B01369545
:101A700027958FE790E0821B9109F0901C0400915C
:101A80001D0410911E0461E0F1E3AF2E88248394BD
:101A9000912CAE81BF814D91BF83AE832FE9240F7E
:101AA0002A3170F54156550BA49E9001A59E300D2C
:101AB0001124F901E452FF4FE490EE2009F1611185
:101AC00001C00697B491BD83BB23B9F023523F4FA9
:101AD00045E050E071EF272E280EF9014590549013
:101AE000EFE0F0E04114510409F05CC02E5F3F4F7D
:101AF0004F5F5F4F4D31510581F78E19910960E0BD
:101B00002E812B19C8842C1508F4C3CF10931E0402
:101B100000931D042896E2E10C9483294F1508F0E8
:101B200040C0D20C6D2D6695669566953A016F9D05
:101B3000600C711C11247C826B82611462E0760659
:101B400084F5D301A15EBB4F3D013C90BD2DB77024
:101B5000B40102C0660F771FBA95E2F76B01D2019C
:101B60000E2E02C0B695A7950A94E2F7D32CDC2876
:101B7000A0FD03C0DC2CD094D3203D1491F0D30100
:101B8000DC92AB81BC8165E0B695A7956A95E1F7DB
:101B9000340102C0660C771CAA95E2F7D30106292E
:101BA0001B2B3197DE2E7FE07E1B7D80771508F49E
:101BB000B5CF9CCFEFE1F4E080E092E0DF019C0143
:101BC0001D9221503040E1F7F0932006E0931F066C
:101BD0008FEF9FEF90931E0480931D040895209132
:101BE000780280916F02282B80916E02882381F009
:101BF000282B30E086E492E0FC014191CF014111B5
:101C00003F5FF2E08C349F07B9F7311110926E02FA
:101C10002093440248E050E060E772E084E492E000
:101C20000E94D929892BB9F088E0E4E4F2E0A0E72A
:101C3000B2E001900D928A95E1F7E091BD03F09139
:101C4000BE03309741F00280F381E02D309719F008
:101C500084E492E00995089510927802E6E4F2E0B7
:101C600086E0DF011D928A95E9F710926F02B7CFE7
:101C7000AAE2B0E0EEE3FEE00C94762980ED93E07A
:101C80002091F100FC012193CF01F3E0883D9F07F3
:101C9000B9F78091D103833009F46EC0B8F4813074
:101CA00009F446C0823009F4B0C08091E80083FF97
:101CB00038C18091D0039091D1039A3008F031C19E
:101CC000E92FF0E0E55CF54D0C94D3298A3009F456
:101CD0008CC08B3009F46DC0893039F78091D00306
:101CE000813219F78091D4039091D503892BE9F6BD
:101CF0008091E800877F8093E8008091E80082FF70
:101D000036C09091F3008091F200029731F48091F7
:101D1000F100813011F0863021F48091F100809340
:101D200042018091E8008B778093E80072D8BDCFA4
:101D30008091D003813A09F0B8CF8091E800877F85
:101D40008093E8008091D4039091D503892B59F4B6
:101D500068E085EC93E070E07BD88091E8008B77B9
:101D60008093E800A2CF60E090E080E0F4CF809123
:101D7000D8038111C2CF99CF8091D003813A09F065
:101D800094CF8091D4039091D503892B09F08DCF06
:101D90008091E800877F8093E8008091E80080FFD1
:101DA000FCCF809143018093F1008091E8008E7711
:101DB000BBCF8091D003813209F077CF8091D403DB
:101DC0009091D503892B09F070CF8091E800877F2F
:101DD0008093E8001ED881E09091D203911101C058
:101DE00080E08093430138DF60CF8091D00381325F
:101DF00009F05BCF8091E800877F8093E80009D8E5
:101E00008091D3038093410150CF8091D003813AD8
:101E100009F04BCF8091E800877F8093E8008091A4
:101E2000E80080FFFCCF80914101BDCF803899F060
:101E3000823809F076C08091D4038F70873008F023
:101E400070C08093E9008091EB0085FB882780F9C2
:101E50001092E90006C08091CD039091CE039111BC
:101E600082609091E800977F9093E8008093F10062
:101E70001092F1008091E8008E7794C1882309F4D4
:101E800081C1823009F04DC08091D203811185C19A
:101E90008091D4038F702FEF280F263008F041C0B7
:101EA0008093E9002091EB0020FF77C1933031F45B
:101EB0008091EB0080628093EB006FC19091EB000A
:101EC00090619093EB0021E030E001C0220F8A95F1
:101ED000EAF72093EA001092EA008091EB00886014
:101EE000EACF81111EC01091D2031F778091E300C9
:101EF0008078812B8093E3008091E800877F809336
:101F0000E8000E9409078091E80080FFFCCF8091E3
:101F1000E30080688093E30082E0111183E0809306
:101F2000D8038091E80083FF0AC08091E800877F92
:101F30008093E8008091EB0080628093EB00AA968A
:101F4000E3E00C9492298058823058F78091D203B4
:101F50009091D3038C3D23E09207A1F583E08A831F
:101F60008AE289834FB7F894DE01139620E03EE0C1
:101F700051E2E32FF0E050935700E49120FF03C0BB
:101F8000E295EF703F5FEF708E2F90E0EA30C0F087
:101F9000C7968D939D932F5F243159F74FBF809142
:101FA000E800877F8093E8006AE270E0CE01019646
:101FB0000E9428078091E8008B778093E800B1CFDA
:101FC000C096E7CF4091D4035091D503292F3327F2
:101FD0002330310509F43FC078F52130310509F48B
:101FE00066C082E290E0E8E5FAE02230310509F0CF
:101FF00098CF2091E800277F2093E8002091D60316
:102000003091D7038217930708F49C0140E0211513
:10201000310509F051C041114FC08091E80082FDA7
:10202000C9CF8091D803882329F2853019F2809195
:10203000E80083FFF2CFBECF2132310581F1223299
:10204000310509F06ECF452B09F06BCF84E490E0A9
:10205000E4E1FAE0CECF992781309105C1F00097F5
:1020600059F0029709F05DCFECE8FAE0E4918E2F89
:1020700090E0ECE8FAE007C0ECEAFAE0E4918E2F99
:1020800090E0ECEAFAE0009709F0B3CF4ACFEAE932
:10209000FAE0E4918E2F90E0EAE9FAE0F4CF452BE4
:1020A00009F03FCF89E090E0EAE6FAE0A2CF82E1D2
:1020B00090E0EAE7FAE09DCF8091D803882309F405
:1020C00079CF853009F476CF8091E80083FD72CF17
:1020D0008091E80082FDA1CF8091E80080FF97CF3A
:1020E0009091F3008091F2002115310519F08830AC
:1020F000910550F041E0089709F040E08091E80038
:102100008E778093E80083CF44914093F10031961D
:10211000215031090196E8CF803809F002CF809133
:10212000E800877F8093E8008091CF038093F100DF
:10213000A1CE8111F6CE1091D203123008F0F1CE6B
:102140008091E800877F8093E8001093CF030E947E
:102150000907112311F084E005C08091E30087FD99
:10216000FACF81E08093D80361EC81E00E942E06D3
:102170008091D803843021F081E080934401D1CE56
:1021800082E0FBCF8091D203813009F0CACE81E09A
:10219000933009F080E08093CE031092E9008091A3
:1021A000E800877F8093E8000E940907BACE54DDDB
:1021B00088E19AE00FB6F894A895809360000FBE6E
:1021C00090936000FFCF882311F0B6DA08CD089510
:1021D000882331F090917802982B90937802FFCC6D
:1021E0000895882389F09CEF980F913A70F4E6E403
:1021F000F2E09191891303C0DF0111971C9292E0E4
:10220000EC34F907B1F7EBCC089590E2980F9830D1
:10221000D8F7877091E001C0990F8A95EAF7892F66
:102220008BDAF1CFCF93C82F8823A1F08CEF8C0FDE
:10223000813AF0F4E6E4F2E0DF018D91C81761F035
:1022400082E0AC34B807C9F76C2F84E492E00E94B6
:102250009807C5DCCF9108958191C81303C0DF01B1
:1022600011971C9282E0EC34F807B1F7B8DCECCFA0
:1022700080E28C0F883070F7C77021E030E001C039
:10228000220FCA95EAF780917802822B8093780218
:10229000E0CF0F931F93CF93DF938C018091D803EE
:1022A000843059F581E08093E9008FEF9091E80048
:1022B000815095FD06C095ED9A95F1F700008111CA
:1022C000F5CF8091E80085FF18C00E94D8068111E3
:1022D0000FC0C8E0D0E08091E80085FD13C0809178
:1022E000E8008E778093E8000E94D806882399F34F
:1022F0008091E8008E778093E800DF91CF911F9165
:102300000F910895F80181918F018093F100219739
:1023100011F7EECFCF93DF93EC01BBDF88E0FE0136
:10232000A5ECB3E001900D928A95E1F7DF91CF9192
:1023300008953BB1377F2BB128604FB7F89486E101
:1023400093E0FC015191CF0168E02BB9000000C07F
:1023500057FF3BB9550F000000C000C000C03BB99B
:1023600000C06A9591F7F3E0883B9F0751F74FBF94
:102370008FE594E00197F1F700C000000895B0E008
:10238000A0E0E5ECF1E10C946F297C015B016A01AE
:102390008091AF0201E010E08A3010F40AE010E012
:1023A000C1E0D0E0B501C701F6010995811104C073
:1023B00021960C171D072CF4CDB7DEB7EAE00C947C
:1023C0008B29CC9F9001CD9F300D300D112490E0D2
:1023D00080E045E34A95F1F70000019682179307E4
:1023E000C1F7E0CF1F93CF93DF93182FEB011ADFD4
:1023F000209731F4812FF5DEDF91CF911F91089561
:102400008FE99FE00197F1F700C000002197F0CF1E
:10241000A2E0B0E0EEE0F2E10C946F299A838983A8
:102420008AE0A82ECE0101960E94C5078823C9F133
:10243000813009F050C0CE0101960E94C50781305D
:1024400061F4CE0101960E94C50770E060E0893317
:1024500011F460E570E0C6DFE5CF823031F4CE01E3
:1024600001960E94C507DEDEDDCF833031F4CE0158
:1024700001960E94C507B5DED5CF843081F4CE0128
:1024800001960E94C50710E000E0482F4053550B0D
:102490009A014A30510548F00115110599F481114E
:1024A000C1CF2296EAE00C948B29A09EC001A19E88
:1024B000900D11248901080F191FCE0101960E9469
:1024C000C507E3CFEFE9FFE03197F1F700C0000067
:1024D00001501109E1CFE82FF0E0E052F54FB49040
:1024E000282F26952695269530E0F901E053F54FE3
:1024F000E4908770F12C082E02C0F594E7940A94BA
:10250000E2F7F1E0EF22FF24F901E054F54FC49027
:10251000D12C082E02C0D594C7940A94E2F741E06A
:10252000C422DD24F901E055F54F049110E002C00A
:10253000159507958A95E2F701701127E114F104CA
:1025400011F081EE6FDEC114D10411F086EE6ADE67
:1025500070E060E08B2D46DFC114D10411F086EEEF
:1025600040DEE114F10411F081EE3BDE01151105AE
:1025700009F458CF70E060E08CE26DCFAB0124E647
:1025800030E0BC0188E70E94272721E0892B09F071
:1025900020E0822F089580911403909115039111EA
:1025A00003C091E089270895882361F062E070E01C
:1025B00082E19AE0E3DF811103C080911403089562
:1025C0001092140380911403ECCFCF93C0911403A5
:1025D000809115038823C9F00E948907605A7541CC
:1025E0008F4F9F4F609310037093110380931203DA
:1025F00090931303C11107C062E070E080E19AE09C
:10260000BDDF811105C0C09114038C2FCF910895B7
:1026100081E080931403F7CFAAE0B0E0E2E1F3E1B8
:102620000C9467290E947B09609307037093080349
:102630008093090390930A0310910F031A87209146
:102640004501213021F1222351F0223009F46BC2DF
:10265000233009F472C22A96E2E10C948329109285
:102660003E0160930B0370930C0380930D039093D2
:102670000E0390911304892F837019F0892F86958A
:10268000869580930F0381E080934501E4CF80918C
:102690003D011A85181328C090911304937020915E
:1026A0003C0130E081E09217130609F480E081706C
:1026B000809340018091180490913F01981739F060
:1026C00080933F0140E060E080E00E94A1081A850D
:1026D0001130B1F0112351F0123009F452C01F3FF4
:1026E00009F4E5C180E029C081E0E1CF809140019B
:1026F000882319F140E060E080E00E94A108F2CF59
:1027000080913E010E947F08082F998360911404F4
:1027100070911504809116040E94D808F62EE72EB9
:10272000D82E10E029810217D8F08091BC038823AD
:1027300009F4B7C181E02B31A8F690913E019F5F6B
:1027400090933E018111EAC182E08093450180911E
:1027500040018111E3C11A851111D3C183E094CFE7
:10276000F801E95FFD4F808190913F01892331F0AD
:102770002D2D4E2D6F2DC8010E9493080F5F1F4F06
:10278000D1CF80913E010E947F08682E99832091CD
:102790000B0330910C0390E080E040E1249F020E97
:1027A000811D349F800D911D1124830F911D8A83FB
:1027B000009116046AEA7FEF802F0E94D8086D838B
:1027C0007E838F8320E6029FC0011124D92E712CB5
:1027D0001A81105C1887A12CBB24B39450E8252ED5
:1027E00052E0352E412C512C862D1981611650F066
:1027F0008091BC03882309F454C181E01B3108F4A3
:102800009CCF70CF8B3108F08C5F20E040E060E01F
:10281000863390F490E0FC01E95FFD4F2081322F78
:102820003270C32E21FF0FC0609117047FEF80E547
:102830000E94D808472F282FC3010E9493082FEF2A
:10284000621A720AD1CFFC01EE0FFF1FE556FE4F50
:1028500010811B83880F991FFC01E559FE4F11A9B8
:102860002B81203718F080EE821B8B833B813E3119
:1028700020F4F12CE12C103268F07B8160E7769F28
:1028800070011124EE0CEF2CEE1CFF08F19480E98E
:10289000E80EF11C8B81880F9A81890F0E94B9087C
:1028A00020E8129F400111246AE06E9D90016F9D07
:1028B000300D1124232F33278058782F7203A00165
:1028C000739F500D1124841A950A812F880F880F49
:1028D0001885810F0E94B9081B8120E8129FA00172
:1028E00011246CE06E9D90016F9D300D1124232FFB
:1028F00033278058182F1203B001139F700D112435
:102900009A01261B370B3C832B83C40160E070E2E5
:102910000E949E299F7135E0389FB001399F700D4C
:102920001124CB01892F99278295869587708987F5
:102930007F71E02E10E080FF02C0ED2C1D2D60386D
:1029400022E0720708F082C03985332309F47CC085
:102950008150982F9170998780FF76C0FD2CD98681
:1029600090E080E0F7E0660F771F881F991FFA95C7
:10297000D1F7A20191010E94B12980E8821B282F82
:10298000B501621B7109E69EC001E79E900D1124FE
:10299000F29E800D911D1124892F9927169FA00169
:1029A000179F500D11241985219F400D511D112491
:1029B000452F552720E033E16B817C81261B370BA7
:1029C00021387FEF37070CF468C0203831050CF050
:1029D00066C0205897FC10C060E876E16819790954
:1029E00061381FEF710744F030E8C32EC60E60381F
:1029F000710514F0CC24CA94C21608F42C2DF501EC
:102A0000E21BF1094E9FB0014F9F700D5E9F700D4C
:102A10001124AB011F81219F400D511D11241E81E6
:102A2000219F600D711D11248E9FD0018F9FB00DCD
:102A30009E9FB00D11241D81129FA00DB11D112468
:102A4000252F472F6B2FF8CEF02E8ACF60382DE13F
:102A50007207F8F03985343051F08F5F982F9170FC
:102A60009987F02E80FF05C0FD2CD98602C0F02E7C
:102A7000198660587D4190E080E0E7E0660F771F9F
:102A8000881F991FEA95D1F7A20191010E94B129EF
:102A900077CF20E01987FE2C73CF20E09BCF2FEF5C
:102AA00099CF81E01981163308F447CE1BCE80916F
:102AB0000B0390910C03A0910D03B0910E032AE03B
:102AC000B695A795979587952A95D1F783709927FD
:102AD000AA27BB2782309105A105B105C1F083303B
:102AE0009105A105B105B1F040E060E00197A105B5
:102AF000B10591F464E180E00E94A10882E0809336
:102B0000450180913E0181500E947F08A4CD44E19F
:102B100060E0F1CF44E164E184E1EECF1A85112356
:102B200009F499CDEECF1A8510933D0180911304DD
:102B3000837080933C01FDDB11CE80911B048823C0
:102B400051F048E050E067E170E083E194E00E94DA
:102B50000C2A10921B04C0900B03D0900C03E09041
:102B60000D03F0900E038091BB03882379F00E943F
:102B700089076C197D098E099F09603171058105EE
:102B8000910508F468CD1092450165CD0E947B093E
:102B9000F0CFE3E1F4E089E08083809146019091F9
:102BA0004701A091480181839283A3838AEA8483A9
:102BB0008FEF858348E050E067E170E0CF010E942D
:102BC0000C2A10921B0408959091BF0292FB2227B9
:102BD00020F9281779F080FB92F99093BF02609159
:102BE000BE027091BF0284E090E00E94352A82E02C
:102BF0000C94670C0895CF92DF92EF92FF921F938F
:102C0000CF93DF9300D000D0CDB7DEB7C090A7023E
:102C1000D090A802E090A902F090AA020E94890731
:102C20006C197D098E099F0911E0643671058105D3
:102C3000910570F10E947B096E5F7F4F8F4F9F4F10
:102C400069837A838B839C838091190190911A0107
:102C50008F569D4F4091180150E04530510510F0BE
:102C600044E050E0BE016F5F7F4F0E94E62983E0A1
:102C700090E00E94E328182F882351F00E948907D2
:102C80006093A7027093A8028093A9029093AA026E
:102C9000812F0F900F900F900F90DF91CF911F9188
:102CA000FF90EF90DF90CF9008958F929F92AF9218
:102CB000BF92EF92FF921F93CF93DF9300D000D08B
:102CC0000F92CDB7DEB77B0190E080E00E94E32851
:102CD000182F882309F482C04091030150E0411568
:102CE000510511F041E050E060910401709105013F
:102CF0006F567D4FCE0105960E94E629809089028D
:102D000090908A02A0908B02B0908C020E9489075A
:102D1000681979098A099B0964367105810591054D
:102D200040F482E992E00E9417069D81891709F418
:102D300055C081E090E00E94E32881111EC010E0A0
:102D40008091850290918602A0918702B0918802BD
:102D5000F70180839183A283B383812F0F900F901B
:102D60000F900F900F90DF91CF911F91FF90EF90F8
:102D7000BF90AF909F908F90089540910B0150E0CD
:102D80004530510510F044E050E060910C01709125
:102D90000D016F567D4FCE0101960E94E62982E912
:102DA00092E00E9417069D818913C9CF0E9489076E
:102DB0006093890270938A0280938B0290938C02B5
:102DC00089819A81AB81BC81809385029093860230
:102DD000A0938702B093880211E0B2CF8091920253
:102DE00090919302A0919402B091950289839A8365
:102DF000AB83BC831111E4CFA3CFB0E0A0E0E3E04C
:102E0000F7E10C946D29C82F7B01D42F6901FB01D8
:102E100080809180A280B3800E9489076819790917
:102E20008A099B09643671058105910510F4DD233B
:102E300059F10C2E000CDD0BFE0183E0EE0FFF1F9D
:102E40008A95E1F7E050FF4F818192818F569D4F27
:102E5000408150E00417150708F4A801B6010E944C
:102E6000E629CE010E94E328C82F882339F00E946A
:102E70008907F70160837183828393838C2FCDB799
:102E8000DEB7ECE00C948929C1E0F8CFA9E0B0E00E
:102E9000ECE4F7E10C94752988E0E3E1F4E0DE016D
:102EA000119601900D928A95E1F7198649E050E05C
:102EB0006EE972E0CE0101960E94D92941E0892B8A
:102EC00009F440E009E010E09E012F5F3F4F6BEAFC
:102ED00072E084E092DF2996E4E00C9491290F934C
:102EE0001F93CF93DF93EC0144E050E066E972E07A
:102EF0000E94D92941E0892B09F440E004E010E068
:102F00009E016DE872E082E078DFDF91CF911F9142
:102F10000F9108951F920F920FB60F9211242F93C5
:102F20003F934F935F936F937F938F939F93AF9351
:102F3000BF93CF93DF93EF93FF93D091E900DF70BE
:102F40008091EC00C82FC17080FDC0E81092E900AC
:102F50008091F000877F8093F00078940E94380E73
:102F60001092E9008091F00088608093F000CD2BF2
:102F7000CF70C093E900FF91EF91DF91CF91BF91A6
:102F8000AF919F918F917F916F915F914F913F9101
:102F90002F910F900FBE0F901F9018951F920F92B8
:102FA0000FB60F9211242F933F934F935F936F931C
:102FB0007F938F939F93AF93BF93EF93FF938091F2
:102FC000E10082FF09C08091E20082FF05C080918C
:102FD000E1008B7F8093E1008091DA0080FF24C0C4
:102FE0008091D80080FF20C08091DA008E7F80938E
:102FF000DA008091D90080FFA9C080E189BD82E11B
:1030000089BD09B400FEFDCF81E08093D803809193
:10301000C403811109C00E9460060E947F0680914E
:10302000E20084608093E2008091E10080FF1AC09A
:103030008091E20080FF16C08091E2008E7F809335
:10304000E2008091E20080618093E2008091D800EC
:1030500080628093D80019BC85E08093D80383E018
:10306000809344018091E10084FF30C08091E200B0
:1030700084FF2CC080E189BD82E189BD99B5892F8B
:10308000817090FFFBCF9091D8009F7D9093D800E6
:103090009091E1009F7E9093E1009091E2009F7EED
:1030A0009093E2009091E20091609093E200909101
:1030B000CF03992309F450C094E09093D8039091E2
:1030C000D803943009F482E0809344018091E100B8
:1030D00083FF2BC08091E20083FF27C08091E10035
:1030E000877F8093E10082E08093D8031092CF0322
:1030F0008091E1008E7F8093E1008091E2008E7FDD
:103100008093E2008091E20080618093E20060E0C1
:1031100080E00E942E068091F00088608093F0008D
:1031200081E08093440180934301FF91EF91BF912F
:10313000AF919F918F917F916F915F914F913F914F
:103140002F910F900FBE0F901F90189519BC1092E1
:10315000D8031092C40368CF9091E30097FD02C09A
:10316000982FABCF93E0A9CF78941F921FB61F92F0
:1031700011248F939F93AF93BF938091C00390913D
:10318000C103A091C203B091C3030196A11DB11D5B
:103190008093C0039093C103A093C203B093C30371
:1031A000BF91AF919F918F911F901FBE1F90189557
:1031B0002FB7F8948091C0039091C103A091C203EE
:1031C000B091C3032FBF0895EF92FF920F931F9307
:1031D000CF93DF93C42FD22FFC0185818823A1F0E8
:1031E0004093BA03E5DF9093B9038093B803C770A7
:1031F00081E001C0880FCA95EAF70E94E810CDB7B8
:10320000DEB7E6E00C948F291091BA03141335C091
:10321000E090B803F090B903CBDF8E199F098D378A
:10322000910558F5C0E2CD0F1D17C1F080E2810F66
:10323000883048F4177081E0012E01C0880F0A948D
:10324000EAF70E94E310C83048F481E09D2F9770A0
:1032500001C0880F9A95EAF70E94E81070E060E0DC
:10326000802FC0D8C83058F6D77081E001C0880FD1
:10327000DA95EAF70E94E310C2CFC77081E001C07F
:10328000880FCA95EAF7F6CFB0E0A0E0EAE4F9E1EA
:103290000C946F297C01FC018481882309F4F4C01B
:1032A00061E0C7010E94D60CEC01F70195819923DA
:1032B00009F44DC081818093E10280818093E00216
:1032C00080E280933401D093DF02C093DE029E013E
:1032D00030522115304238F4F7018681807F09F49D
:1032E0003FC0FE010AC09E0130542115304110F547
:1032F000F7018681807FFE0109F0FF27ED33F1059C
:1033000028F4EA52FA4FE491E0933401C335FEE722
:10331000DF0708F0C9C4C1342EE7D20708F058C04F
:10332000C0343EE7D307E1F434DC0E9469080E9410
:10333000CE0528C09E013A9521153F4190F29E018D
:10334000205A32452032310508F3FE01D7CFC3356C
:103350002EE7D207B9F070F4C0348EE7D80791F0A9
:10336000FE01E851FC47E730F10560F4EB5BF54DF9
:103370000C94D329C4359EE7D90721F0C535EEE773
:10338000DE0771F7F7019581992309F457C410926C
:10339000BA039E0130572332310508F039C484E066
:1033A00090E00E94072A9093BF028093BE02FE0124
:1033B000E150F047E232F10508F08FC0E45BF54DD3
:1033C0000C94D32980911704885080931704AFCFB1
:1033D0008DE796E01DD8FE01E254FE4789E796E0AE
:1033E000E131F10530F4E259F54D0C94D32985E72C
:1033F00096E00ED882E196E00BD8B2CF81E796E056
:10340000F8CF8DE696E0F5CF89E696E0F2CF85E637
:1034100096E0EFCF81E696E0ECCF8DE596E0E9CF40
:1034200089E596E0E6CF85E596E0E3CF81E596E095
:10343000E0CF8DE496E0DDCF89E496E0DACF8AE351
:1034400096E0D7CF8BE296E0D4CF87E296E0D1CF5B
:1034500083E296E0CECF8FE196E0CBCF06E221EE7D
:1034600041EE6AE17CE7C701AFDE80916D028770B3
:1034700059F0F7018581882339F08091BF0282FFDE
:1034800003C082E00E94670CCDB7DEB7EAE00C947F
:103490008B2907E225EE45EE6BE17CE7E4CF06E2FF
:1034A00021EE40EE68E17CE7DECF07E225EE44EE58
:1034B00069E17CE7D8CF06E221EE42EE6CE17CE7E1
:1034C000D2CF07E225EE46EE6DE17CE7CCCF08E2F5
:1034D00021E045EE6EE17CE7C6CF8091BE028160BF
:1034E0008093BE0295C08091BF0288608093BF0226
:1034F0008FC08091BE028260F3CF8091BE02846053
:10350000EFCF8091BE028860EBCF8091BF028160D7
:10351000EDCF8091BF028260E9CF8091BE028061D1
:10352000DFCF8091BE028062DBCF8091BE028064DB
:10353000D7CF0E942C0E8091BE028068D1CF80919F
:10354000BE028C60CDCF8091BF028360CFCF8091CF
:10355000BE028E7FC5CF8091BF02877FC7CF80918B
:10356000BE028D7FBDCF8091BE028B7FB9CF80918F
:10357000BE02877FB5CF8091BF028E7FB7CF80918B
:10358000BF028D7FB3CF8091BE028F7EA9CF809185
:10359000BE028F7DA5CF8091BE028F7BA1CF0E94FE
:1035A0002C0E8091BE028F779BCF8091BE02837FCD
:1035B00097CF8091BF028C7F99CF8091BE0282FB12
:1035C000992790F921E0922790FB82F990FB83F9EB
:1035D00087CF8091BF02982F909591708E7F892B15
:1035E00090FB81F983CF9091BE02892F8F7B96FF4C
:1035F000806476CF0E942C0E9091BE02892F97FB9B
:1036000087F980586DCF61E08EE090E00E941B2A20
:103610006091BE027091BF0284E090E00E94352A62
:103620000E942C0E22CF60E0EFCF9091BE02892F36
:103630008F7E94FF806154CF9091BE02892F8E7F40
:1036400090FF81604DCF9091BF02892F877F93FFBC
:1036500088604CCF85E3FBC20E94760806CF8823A2
:1036600051F10E94580801CF882351F10E94480867
:10367000FCCE882351F10E943208F7CE882351F105
:103680000E941C08F2CE882351F10E940A08EDCE58
:103690000E9469080E94CE05E8CE809113048370D1
:1036A00011F010924501809113048C7F80931304D4
:1036B000F1CF8823B1F20E946008D7CE8823B1F2FF
:1036C0000E945008D2CE8823B1F20E943D08CDCE90
:1036D0008823B1F20E942708C8CE8823B1F20E9445
:1036E0001308C3CE882329F00E94DB07BECE8823AF
:1036F000D9F30E94F407B9CE9E01205E32452032F4
:103700003105A8F4911116C0CF7181E090E09C01C1
:1037100002C0220F331FCA95E2F7E901622F83E04E
:1037200090E00E941B2ACE010E948B0C9ECE992312
:1037300009F43FC0CB353CE7D30799F0CC358CE793
:10374000D80731F0CA35ECE7DE0769F481E007C03D
:103750008091BF0282FB882780F991E0892734DAC3
:1037600084CE80E0FCCFC1303CE7D30701F1C33009
:103770008CE7D807B1F0C115DC47D9F40E942C0EB4
:1037800087E797E7909301088093000888E19AE023
:103790000FB6F894A895809360000FBE90936000D8
:1037A000FFCF6FEF7FEF90E080E00E94352A0E940C
:1037B000D710F701C081D181992309F44AC0CE0105
:1037C0000E94AD0B182F682FCE010E941C0CBE0169
:1037D000812F0E94860A0E94A50A182FC92FA82EA1
:1037E000F701C580B680B2949FE0B92280916D0246
:1037F000877001F10C2DCC20F1F08C2F807F80346C
:1038000069F080E2810F8830A8F08C2F807E8032B2
:1038100029F4F1E0F11770F4BB2061F08091BF0250
:1038200082FF08C082E00E94670C80916D02877061
:1038300001E009F000E0DC2ED2948FE0D8222BE0EA
:103840002D1508F466C0ED2DF0E0E158F54D0C940F
:10385000D329CE010E94E90B182FB9CFDC2FDF70DE
:10386000C07F11F0D295D07FCC20B9F0DD2369F074
:1038700080E2810F883010F0A11009C08091780299
:10388000D82BD09378020E94EF0D812F40C08091F9
:103890006F02D82BD0936F02F6CF812F0E94F110C8
:1038A000DD23B9F1105E183010F0A11004C08D2F87
:1038B0000E949C0B06C0D09580916F02D823D093B4
:1038C0006F020E94EF0D25C0DC2FDF70C07FC03279
:1038D00011F0D295D07FAA2051F031E0A31609F45F
:1038E00059C0CC2009F465C0BB2051F1CECF8091E6
:1038F000BF0282FD21C0CC20C9F0DD2339F08091C8
:103900007802D82BD09378020E94EF0D80E00E94BD
:103910001211ED2DE850FF0B349708F061C10E94A1
:10392000B20760E0C7010E94D60CAECD80E00E94D5
:10393000F110DD2371F3BBCFCC2099F0B11004C09E
:103940008D2F0E94E810E5CF81E0B812E2CF809180
:103950006E029D2F9823D917E1F2D82BD0936E02D7
:10396000D8CFB110D6CF8D2F0E94E31090916E0268
:103970008D2F892329F08D2F8095892380936E02C6
:1039800080914D029D2F982321F2D095D823D0937A
:103990004D02BFCFCC2029F095E09B1508F4B9CF9C
:1039A000CFCFE4E0EB1508F4B4CF8D2F0E94E310E5
:1039B000B0CFBB20D1F3F9E3AF120BC12FEF37EE3D
:1039C00083E0215030408040E1F700C0000001C199
:1039D0008C2F837009F03FC0C1109BCF412F4295BF
:1039E00046954770440F440F212F2F7030E0042E6E
:1039F00002C0220F331F0A94E2F790E080E014FF28
:103A000009C08FE090E002C0880F991F4A95E2F745
:103A100080959095C695C695C370C23099F078F49C
:103A20004091DA025091DB02C13039F0822B932BA6
:103A3000842395230E948B0C6CCF242B352B822B57
:103A4000932BF8CF822B932B2091DA023091DB025B
:103A500082279327EFCF8695CC2011F08C2F817091
:103A6000882309F456CF412F429546954770440F5D
:103A7000440F212F2F7030E0042E02C0220F331F7D
:103A80000A94E2F790E080E014FF09C08FE090E034
:103A900002C0880F991F4A95E2F780959095C695C8
:103AA000C695C370C23099F078F44091DC02509111
:103AB000DD02C13039F0822B932B842395230E94A1
:103AC000520C27CF242B352B822B932BF8CF822B14
:103AD000932B2091DC023091DD0282279327EFCFD8
:103AE000CF70CC2029F08C2F0E947D0C812F29CF04
:103AF000812F0E94E3108C2F0E94570C0ACF812F38
:103B000092EFA91699F19A1570F0E0EFAE16D1F088
:103B1000F1EFAF1691F0CC2009F456C0B110B5CE3C
:103B20008C2F8F7127C023EFA21639F134EFA31227
:103B3000F2CF9091BF0292FD2EC08C2F8F71CC20BE
:103B4000D9F218C0CC2069F084E08B1508F4E1CEDE
:103B5000CF7181E090E002C0880F991FCA95E2F70B
:103B6000B8CF95E09B1508F4D4CEF2CF8C2F8F718F
:103B7000C110C2CF0E947D0CCCCE90E080E0CC2062
:103B800009F49DCFCF7181E090E002C0880F991FAA
:103B9000CA95E2F794CFCC2061F08C2F8F7192FF01
:103BA000E9CFE8E08E9F90011124236020936D02FD
:103BB000E1CF81E00E94670CF1E0FB1508F0A9CE8F
:103BC00082E00E94670CA5CEBB2039F0893309F44E
:103BD000F5CE812F0E94F1109CCE8C2F8F718CCF4F
:103BE000002309F49ECE80916D0280FD9ACEF701EC
:103BF00015828695869586950E947D0CC70144DBCB
:103C000080916D028695869586950E94570C89CE87
:103C100080917802C631FCE7DF0761F58A7A91E08E
:103C200009F490E090934C0269E2811165E384E429
:103C300092E00E9498070E94EF0D17CCC6312CE746
:103C4000D20721F580914C02811104CD89E2E6E48E
:103C5000F2E02CE432E09191891303C0DF01119767
:103C60001C922E173F07B9F7E6CF84E896E00E9432
:103C7000081288CB8272FE01E052F847EB30F10562
:103C800008F03ACDE557F54D0C94D3298091780290
:103C90008272FE01E054F847EF30F10508F02CCDB8
:103CA000EA56F54D0C94D329C4358EE7D80709F4AC
:103CB00089CBD8F2C535FEE7DF0709F051CB8091FB
:103CC0001704885F992309F45DCB7FCBB0E0A0E0B7
:103CD000ECE6FEE10C94722980916C02807F09F081
:103CE0004FC080916B02882309F44AC0E09112040E
:103CF00087E0D82E8091D9038E1709F441C00E2F8A
:103D000010E0ED9DF0011124E652FC4F84818823E0
:103D1000E1F1D09EE001D19ED00D1124FE01E652CA
:103D2000FC4F91818091670298132FC09081809100
:103D3000660298132AC08581811127C0E280F38032
:103D40008091680290916902E81AF90A60E086E6BB
:103D500092E00E94D60C8DE7E816F104B0F4809151
:103D60006C028F70806180936C02C052DC4F88813E
:103D70008F708061888386E692E086DA0E94A30BCA
:103D8000CDB7DEB7E7E00C948E29F8013196E770E5
:103D9000B1CFA4E1B0E0EFECFEE10C946A298C0114
:103DA00086E0F801DE011F9601900D928A95E1F7F9
:103DB000F801F480E58086E6882E82E0982E8091D6
:103DC0006A02811128C0F11003C0FF24F3941BC0C4
:103DD000EE20F1F0C8010E94900CF82E8823C1F06B
:103DE00087E0F801A6E6B2E001900D928A95E1F72E
:103DF00080916A02813031F480916602909167026D
:103E00000E94DF0B63DF8F2D6496EFE00C94862910
:103E1000C8013ADADACFC280D380B0906B028091C9
:103E20006802909169023601681A790ABB2009F488
:103E3000F1C05080A18060E086E692E00E94D60C3E
:103E4000FDE76F16710408F0A0C0FF2009F4BDCF94
:103E500080916C02382F307F20916702F8019181A8
:103E6000311156C0FE2C291313C020916602908197
:103E700029130EC0E11045C08F70806180936C02E1
:103E800086E692E001DA80916C02F8018683BBCF6E
:103E9000E11037C06A2D852D0E94F8056A2D852D09
:103EA0000E94F805E82E8111AECF5F86A88A8F8523
:103EB00098890E94DF0B292F22952F70243058F407
:103EC0009F70223080F0992391F0F8019681907FC5
:103ED00071F4FE2C98CF2A5F2F70223060F0C80159
:103EE000D3D9EB2CF6CF992311F0882391F3805E80
:103EF000883078F3F4CF803F60F3815F833078F7C8
:103F0000E8CF80916C02816080936C02F12C7BCFB2
:103F1000291314C020916602908129130FC0E1106B
:103F20000DC08683C801B0D987E0F801A6E6B2E0EB
:103F300001900D928A95E1F7FB2C65CFC8010E9494
:103F4000900C882309F464CFEE2009F461CF8091AE
:103F50006C02803280F020916602309167023987CE
:103F60002887DB86CA8690916A029C871D868E8789
:103F7000CE01089689D987E0F801A6E6B2E0019063
:103F80000D928A95E1F7A2DE20CF80916C02982FE6
:103F9000907F49F486E692E077D987E0F4011192A8
:103FA0008A95E9F7B3CFFF2009F40FCF209167027C
:103FB000F8019181291310C0209166029081291384
:103FC0000BC0E11009C08683C8015ED987E0F40107
:103FD00011928A95E9F7B0CFC8010E94900C88230E
:103FE00009F416CFEE2009F413CF80916C028032D1
:103FF00008F4C1CF20916602309167023A83298389
:10400000DC82CB8290916A029D831E828F83CE01D7
:104010000196B0CF60E086E692E00E94D60CFDE704
:104020006F16710408F0B9CFFF2009F4CECEFE2C34
:10403000EE2009F4EDCE90916702F801818198138A
:104040002CC0909166028081981327C080916802ED
:1040500090916902C81AD90AFDE7CF16D104A0F4DD
:1040600090916C0290FD10C0907F71F080916C0275
:10407000F8018683903F31F0982F907F905F8F708A
:10408000892B8683C80100D987E0F801A6E6B2E053
:1040900001900D928A95E1F7B6CEC8010E94900C6E
:1040A000811169CF80916C02816080936C02C8019C
:1040B000EBD8A9CEABE1B0E0E0E6F0E20C947629D3
:1040C0004E8B5F8B688F798F8A8F9B8F91111092A7
:1040D0006F021D8A86E0FE017696DE011F96019032
:1040E0000D928A95E1F78B89882351F061E0CE012A
:1040F0000F960E94D60C61E0CE010F960E94D60C5E
:1041000087E0FE013F96DE01189601900D928A9598
:10411000E1F7CE0108963DDE81110CC087E0FE017B
:104120003896DE01119601900D928A95E1F78C8503
:1041300081110BC017E0809112049091D90389136B
:1041400031C06B96E3E00C9492292091D90330E0C2
:10415000C9010196877099274091120448171906E2
:1041600099F097E0929FD001939FB00D1124A65231
:10417000BC4FFE01319601900D929A95E1F7809324
:10418000D9030E94A30BD6CF0E942C0E1092D90304
:104190001092120487E0E6E6F2E0DF011D928A95B4
:1041A000E9F7C8CF819FC001112486529C4FF1DDF1
:1041B000882339F28091120490E001968770992744
:1041C00080931204B8CFACE0B0E0E9EEF0E20C94DA
:1041D0006C298E010F5F1F4F88E0D8011D928A95D0
:1041E000E9F781E5C82E81E0D82EF12CE12CAA2434
:1041F000A394B12C2BE5822E21E0922EF601819121
:104200006F018F3F09F442C0F894E82FE295EF70F8
:10421000F0E021A18F70A50102C0440F551F8A95BF
:10422000E2F7CA01922F982B91A392A1809589233E
:1042300082A3789400C0E5E5F1E0712C31E0219192
:104240002F3F09F4A2C0A22FA295AF70B0E09096C4
:104250008C9190E02F7002C0959587952A95E2F792
:1042600080FD93C0832F782A330F8E169F0639F76F
:10427000F601319780818F3F11F00E94640950EA66
:104280005A95F1F7F801EE0DFF1D70828FEFE81AD5
:10429000F80A94E0E916F10409F0B0CF48E050E0E4
:1042A000B80184EB92E00E94D929009741F028E000
:1042B000F801A4EBB2E001900D922A95E1F700918C
:1042C000BD0210E000541D4F892B09F460C081E04D
:1042D00080937D020E94D81890937C0280937B0289
:1042E000F12CE090BB03EE2009F4AEC019861A86CB
:1042F0001B861C868091AF028A3008F06DC045E5B0
:1043000056E1BE01675F7F4FC8010E94BF1188233D
:1043100009F489C04FE657E1BE01675F7F4FC801CE
:104320000E94BF11882309F47EC04BEF55E1BE0106
:10433000675F7F4FC8010E94BF11882309F473C0D3
:1043400046E457E1BE01675F7F4FC8010E94BF117D
:10435000882309F468C01092AF028091BC0290E0FB
:1043600044E050E0BE01675F7F4F80549D4F0E9444
:10437000D92921E020938402892B09F046C0E12C41
:104380008E2D8F292C96EDE0C3C780E06CCFF09086
:104390007D02FF2009F4A4CFC0907B02D0907C0264
:1043A0000E94D8188C199D09059708F499CF44E00C
:1043B00050E064EB72E0C801FCD7892B59F084E02F
:1043C000E4EBF2E0D80101900D928A95E1F71092AA
:1043D0007D0287CFF12CFBCFC0907E02D0907F0270
:1043E0000E94D8188C199D09843F914008F087CF0E
:1043F00080918402882319F2FE01399684E0DF015E
:104400001D928A95E9F710928402E091BC02F0E0D7
:10441000E054FD4F89859A85AB85BC858083918367
:10442000A283B383ADCF8091AF028F3F31F08F5F16
:104430008093AF028A3008F490CF0E94D8189093EE
:104440007F0280937E02D4CFC090BC02D12CF601B3
:10445000E054FD4F6F0184E0F801A2E9B2E0019061
:104460000D928A95E1F782E992E00E941706809307
:10447000910284E0E6E9F2E0D60101900D928A957E
:10448000E1F780909A0290909B02A0909C02B090DD
:104490009D028091800290918102A0918202B09150
:1044A000830288169906AA06BB06B1F080928002A4
:1044B00090928102A0928202B09283020E948907A8
:1044C000861A970AA80AB90A8092B0029092B1029D
:1044D000A092B202B092B30288E0EEE9F2E0A3E16A
:1044E000B4E001900D928A95E1F74ACFA6E0B0E0E2
:1044F000EBE7F2E2FAC60E94D8188C0180917902AB
:1045000090917A028017910779F019821A820E949D
:10451000D818682F49815A81792F80E090E0CADD50
:1045200010937A02009379022696E4E0FAC61F926D
:104530001FB61F9211248F939F93AF93BF938091C7
:10454000BF03811113C08091C0039091C103A0915A
:10455000C203B091C3034196A11DB11D8093C00356
:104560009093C103A093C203B093C303BF91AF91D3
:104570009F918F911F901FBE1F901895CF93DF932F
:10458000EC010E94D8188C1B9D0BDF91CF910895F0
:10459000CDB7DEB72F970FB6F894DEBF0FBECDBFF5
:1045A00085B7806885BF85B7806885BF84B7877FFA
:1045B00084BF0FB6F894A8958091600088618093BD
:1045C0006000109260000FBE80E890E00FB6F89493
:1045D00080936100909361000FBE81E0809344015D
:1045E00082E699E090934302809342020E94600623
:1045F0000E947F068091E20084608093E2007894BC
:104600008091D8038823A1F01091E9001F70909148
:10461000EC00892F817090FD80E8182B1092E90042
:104620008091E80083FD0E94380E1F701093E9000E
:1046300082E084BD93E095BD9AEF97BD80936E00B4
:104640001092B0021092B1021092B2021092B30214
:104650008091D80080618093D8002AE12A95F1F7F3
:1046600000C08091D900182F117080FD04C00E94F5
:1046700060061092D8031093BB0381E081278093DA
:10468000BC03809328011111BBD48091BC0394E03A
:10469000811190E09093BD0284E0891B8093BC025D
:1046A00084E90E94640986E60E94640987E90E9401
:1046B000640986EC0E94640905E511E0ABE5EA2E89
:1046C000A1E0FA2ED8018D918D018F3F11F00E944B
:1046D0006409E016F106B1F788E0E0ECF2E0DF01F2
:1046E000282F1D922A95E9F7E4EBF2E0DF011D92F5
:1046F0008A95E9F790E080E08AD6833E9E4F79F173
:1047000063EE7EEF90E080E0B0D660E082E090E083
:1047100092D681E090E09093DB028093DA0261E030
:1047200083E090E088D660E074E184E090E09DD67C
:104730000E94C91540E050E0BA018FE090E08DD6AC
:1047400040E050E0BA0183E190E087D648E050E0D5
:1047500067E170E083E194E05FD610921B0482E091
:1047600090E04DD68093D00284E090E050D69093B4
:10477000BF028093BE0283E090E041D690E00E94A9
:104780008B0C0E94D90781E080931B0448E050E025
:1047900067E170E083E194E022D610921B048091DF
:1047A00013048C7F11F40E94C91583E080930203E7
:1047B00080E280931C04DAD26BE070E081EF98E035
:1047C0000E94BE12882359F18091020365E070E0D7
:1047D00081FDAFC08CEE98E00E94BE128823F9F0F4
:1047E0006DE070E08AED98E00E94BE128823B9F077
:1047F0000E948907605A75418F4F9F4F6093100345
:104800007093110380931203909313030E94DA0DA7
:1048100081E0809315038093140310920303809129
:10482000BB03811101C0EFD389E291E09093BE03F5
:104830008093BD03EE24E394F12C8091D80310E41F
:1048400002E1853009F4D0C0BEDC71EDA72E72E024
:10485000B72EE0EC8E2EE2E09E2E29ED32E0D40160
:10486000F50191918D912E173F0709F4C7C0981754
:10487000C1F36090BB0368ECC62E62E0D62E712CAB
:10488000D4015D904D01F50131905F01351409F4BB
:1048900044C0352410E000E044244394832D842157
:1048A00099F1252C2420662009F1D6018C9190E005
:1048B0009701002E02C0220F331F0A94E2F78223D1
:1048C0009323892B99F4088779860E94D8189B87AF
:1048D0008A87B1E0BC8791E0211001C090E09D87FC
:1048E000488559856A857B858C85E4DB21100CC061
:1048F000C701002E01C0880F0A94EAF7982F9095FF
:10490000F601808189238083440C0F5F1F4F06309E
:10491000110521F6F501319750827394FFEFCF1AFC
:10492000DF0A28E07212ACCF0E947B09DD24D39409
:1049300069C087EE98E050CF8091D803843039F178
:104940000E940C130E94CB121092BF03E8E1F0E02A
:104950000FB6F894A895E09360000FBE1093600026
:1049600083B7817F846083BF83B7816083BF78947E
:10497000889583B78E7F83BF0FB6F894A8958091F2
:104980006000886180936000109260000FBE1BDCA5
:10499000E0ECF2E0A8ECB2E080E021912D9391E010
:1049A000211101C090E0892B22E0E83CF207A9F731
:1049B0008823D1F08091CE038823B1F080E189BDB6
:1049C00009BD09B400FEFDCF8091D8008F7D809392
:1049D000D8008091E00082608093E0008091E00048
:1049E00081FDFCCF0E942C0E8091D803853009F404
:1049F000A3CF0E942C0E0E94B20726CF981339CF66
:104A000075DDD12C0E940C1380911503882309F4C5
:104A10006EC000910403109105030E94D818801BFA
:104A2000910BC29708F444C00E94D81890930503D4
:104A3000809304038FE194E09093200680931F06F7
:104A40008091BB03882309F461C02091DC0230917E
:104A5000DD028091DA029091DB02822B932B0E947F
:104A6000B20C182F80913301181711F10E94DA0D42
:104A70004CEF58E0163040F4E12FF0E0EE0FFF1F4E
:104A8000EC5FF64F45915491DE01119630E020E045
:104A9000CD01FA01E20FF31FE491ED932F5F3F4F39
:104AA00027303105B1F767E00E94FD0C1093330108
:104AB00080911D0490911E04892BB9F580911403F7
:104AC0008823A9F00E948907009110031091110317
:104AD0002091120330911303601B710B820B930B17
:104AE0006F3F7F4F8F4F9F4710F40E94CB12D11022
:104AF0000E94E5120E94B20790910603891709F4FB
:104B00009CCE809306030E94890797CE8091D9029C
:104B10008111CECF0E94DA0D65E089E491E00E9418
:104B2000FD0C81E08093D902C3CF809103038111F2
:104B3000C5CF0E94E51220911D0430911E0421155D
:104B4000310509F4BBCF80E0082F10E02701082EC3
:104B500002C0440C551C0A94E2F7A20142235323DD
:104B6000452B11F48F5FF0CF9091020390FF96C018
:104B7000880F880F880F8093370110923A01895F60
:104B80008093380183E080933B0124E630E047E0E6
:104B900050E065E371E088E71CD1892B09F08ECFE6
:104BA000A80195E0440F551F9A95E1F78091020303
:104BB00080FF86C0E2EEF2E080E2DF011D928A957E
:104BC000E9F7EFE5F1E0FF87EE870BE511E087E01D
:104BD000982EAE85BF852D91BF87AE87F8012190B5
:104BE0008F01240E352E311CC101815E9B4F1C01AB
:104BF000E22FF0E0EE51FD4F30E020E0792C721A08
:104C0000CE2C022E01C0CC0C0A94EAF7510190E0A0
:104C1000D5018D915D018C21672D691B6770862EF2
:104C2000062E000C770BB82F01C0BB0F8A94EAF751
:104C30008B2E7195619571096770772701C08695F4
:104C40006A95EAF7882A8081882A80829F5F983057
:104C5000F9F62F5F3F4F31962830310579F6EE8512
:104C6000FF85E356F14009F0B4CF04E610E020E2FE
:104C700030E042EE52E060E488E729D1892B09F068
:104C80001DCF4094509480911D0490911E044822A1
:104C9000592250921E0440921D0410CF8295880F15
:104CA000807680933701980136952795369527951C
:104CB00020933A01815E8093380120933B0165CFB8
:104CC000415E5B4F04E610E020E230E0D4CFEF928B
:104CD000FF920F931F93CF93DF93182FEB01109246
:104CE000BC0084EA8093BC000E94D8187C018091AB
:104CF000BC0087FF27C08091B900887F883029F0E9
:104D00008091B900887F803171F51093BB0084E8F1
:104D10008093BC000E94D8188C018091BC0087FF52
:104D20001CC02091B900287F90E080E0283189F0F4
:104D300081E090E0203411F490E080E0919581953D
:104D4000910907C0C7011ADCC817D90780F68EEF92
:104D50009FEFCDB7DEB7E6E0E2C2C8010FDCC817AF
:104D6000D907D8F6F4CF8FEF9FEFF3CF1092B900A9
:104D70008CE08093B80008950F931F93CF93DF9337
:104D8000EB018093BB0084E88093BC000E94D8189C
:104D90008C018091BC0087FF11C02091B900287F51
:104DA00081E090E0283211F490E080E091958195C7
:104DB0009109DF91CF911F910F910895CF3FDC07AB
:104DC00041F3C801DBDBC817D90718F78EEF9FEF57
:104DD000F0CFB0E0A0E0EEEEF6E27EC2782E5B010E
:104DE0006A0189010E94D8184C01C1E0D0E0043169
:104DF000110550F0C5E0D0E00F3F100729F0C801C1
:104E000064E170E050D2EB01BE01872D60DF7C01D0
:104E100097FF08C00F3F1007B9F3C401AFDB0817B5
:104E2000190790F7E501CA0CDB1CCC15DD0511F064
:104E3000F7FE08C084E98093BC00C701CDB7DEB798
:104E4000EDE066C2B801899197DF7C01EECFB0E05A
:104E5000A0E0ECE2F7E240C2782E5B016A01890132
:104E60000E94D8184C01C1E0D0E00431110550F087
:104E7000C5E0D0E00F3F100729F0C80164E170E001
:104E800012D2EB01BE01872D22DF7C0197FF08C003
:104E90000F3F1007B9F3C40171DB0817190790F72A
:104EA000E501CA0CDB1CCC15DD0511F0F7FE08C0CE
:104EB00084E98093BC00C701CDB7DEB7EDE028C21E
:104EC000FE018491B80158DF7C012196ECCFB0E05F
:104ED000A0E0ECE6F7E2FFC1682E762E5A016901E8
:104EE0000E94D8184C01C1E0D0E00431110550F007
:104EF000C5E0D0E00F3F100729F0C80164E170E081
:104F0000D2D1EB01BE01862DE2DE7C0197FF1AC0F3
:104F10000F3F1007B9F3C40131DB0817190790F7E9
:104F200084E98093BC00C701CDB7DEB7EEE0EFC1E6
:104F3000B801899121DF7C01CC16DD0689F3F7FEEB
:104F4000F7CFEECFB801872D17DF7C01E501CA0C42
:104F5000DB1CF2CF8EE14A9B02C08150E1F74A9BF5
:104F6000FECF08955A9880E28A95F1F75A9A0895EB
:104F7000FC013BE03A95F1F798E020E080E031E079
:104F800040E14A95F1F7880F4A9B02C081602327D0
:104F900042E04A95F1F7000040E14A95F1F791505F
:104FA00079F790E19A95F1F799B132E03A95F1F7F6
:104FB000000040E14A95F1F792FB992790F992277A
:104FC0002081920F90830895A1E0B0E0E9EEF7E22E
:104FD0008AC119828C017C01E60EF11C0E151F0599
:104FE00039F481E09981911180E02196E6E097C142
:104FF000B1DFCE010196BCDFF80181938F01EECFC6
:10500000529A5A9A089552985A9AEA9AE9E6F0E022
:1050100080818F7C808308956150770B91E001C07F
:10502000990F6A95EAF720E031E0911108C0222338
:1050300091F05A9A80E28A95F1F75A980895492F8B
:10504000482339F05A9A232740E24A95F1F796957A
:10505000ECCF5A98F9CF5A98EDCFFF920F931F9348
:10506000CF93DF93EC018C01060F111DC017D10700
:1050700021F4CDB7DEB7E5E053C1F99073DF68E006
:105080008F2DCADFF3CF1F920F920FB60F9211240C
:105090000F931F932F933F934F935F936F937F9340
:1050A0008F939F93AF93BF93EF93FF93CF93DF9330
:1050B0000F92CDB7DEB719824DDFCE01019658DFD2
:1050C000082F069506950695282F22952570902F76
:1050D0009570290F922F937026952695920F9827F9
:1050E00097708981982B09F058C0063008F055C098
:1050F00080E18A95F1F75A9A529A82E08A95F1F7FF
:1051000000C05A9888E0089F80011124D801A0505F
:10511000BF4F1696ED91FC9117973097A9F06091CB
:105120004F017091500114962D913C911597260FC7
:10513000371F11968D919C911297680F791F1396C6
:105140004C9113978C910995F801E050FF4F6381C2
:10515000662349F020914F0130915001848195815F
:10516000820F931F7ADFFEDE80E18A95F1F75A986D
:1051700052985A9A80E18A95F1F7F801E050FF4F72
:105180006081662349F020914F0130915001818167
:105190009281820F931F18DFDDDE0F90DF91CF9198
:1051A000FF91EF91BF91AF919F918F917F916F91FF
:1051B0005F914F913F912F911F910F910F900FBED3
:1051C0000F901F9018950F931F93CF93DF93EC01CF
:1051D00006970CF049C0F894529A5A9885E08A953F
:1051E000F1F700009C2F969595708C2F8570980F85
:1051F000892F83709695969523E0CC0FDD1F2A9515
:10520000E1F7980F8E01092BADDE00C068E0802F1A
:1052100003DF80E18A95F1F752985A9A4A9B1DC0A4
:1052200087E090E04A991BC0FE01E050FF4F638188
:105230006623F1F020914F013091500184819581D6
:10524000820F931FC1DE811113C0529A5A9A78942B
:10525000DF91CF911F910F91089500C0DFCF01978B
:1052600029F4529A5A9A789480E0F2CF00C0DACFAB
:1052700071DE80E28A95F1F75A98529A80E18A9518
:10528000F1F7C050DF4F6881662349F020914F014C
:105290003091500189819A81820F931FDEDE62DE98
:1052A000789481E0D5CFAA1BBB1B51E107C0AA1F90
:1052B000BB1FA617B70710F0A61BB70B881F991FB7
:1052C0005A95A9F780959095BC01CD0108952F922C
:1052D0003F924F925F926F927F928F929F92AF9286
:1052E000BF92CF92DF92EF92FF920F931F93CF93D3
:1052F000DF93CDB7DEB7CA1BDB0B0FB6F894DEBF6A
:105300000FBECDBF09942A88398848885F846E848F
:105310007D848C849B84AA84B984C884DF80EE80D9
:10532000FD800C811B81AA81B981CE0FD11D0FB6E2
:10533000F894DEBF0FBECDBFED01089597FB072E99
:1053400016F4009406D077FD08D0ADDF07FC05D039
:105350003EF4909581959F4F0895709561957F4F8C
:105360000895A1E21A2EAA1BBB1BFD010DC0AA1FA6
:10537000BB1FEE1FFF1FA217B307E407F50720F0BE
:10538000A21BB30BE40BF50B661F771F881F991F39
:105390001A9469F760957095809590959B01AC0182
:1053A000BD01CF010895EE0FFF1F0590F491E02D90
:1053B0000994FB01DC0104C08D910190801921F456
:1053C00041505040C8F7881B990B0895FB01DC0140
:1053D00002C001900D9241505040D8F70895DC0171
:1053E000CB01FC01F999FECF06C0F2BDE1BDF89AF0
:1053F000319600B40D9241505040B8F70895F99994
:10540000FECF92BD81BDF89A992780B50895A8E195
:10541000B0E042E050E0E5CFDC01A40FB51F415001
:10542000504040F0CB01840F951F2E9105D0415084
:105430005040D8F70895262FF999FECF92BD81BD2F
:10544000F89A019700B4021639F01FBA20BD0FB6C2
:10545000F894FA9AF99A0FBE08950396272FECDF75
:10546000EADF252FE9DF242FE7CF0196272FE4DF9E
:10547000E2CFF894FFCF160F3E0F910F3E0F910F22
:10548000710FA30F910F8C1099104F1A551A2E1AE5
:10549000491A5B1A611A671AA71A1C1BAF1A791AE4
:1054A0007D1AB31A811AB71AC31A8D1A151B911ACD
:1054B000C71A951ACB1AF31A991ACF1AFA1A9F1A01
:1054C000D51ADD1A851ABB1A891ABF1AA31AD91A56
:1054D000E91A031B131B731AAB1A231BF719FE19C6
:1054E000011A041A071A0A1A0D1A101A131A161A90
:1054F000191A1C1A1F1A221A251A281A2B1A2E1CBE
:105500002E1C641C641C891C891C891C891CE81CB9
:10551000701D7F1D7F1D2C1B2F1B591B341B5E1BF9
:10552000391B631B3E1B681B431B6D1B481B4D1B1C
:105530002C1B2F1B591B341B5E1B391B631B3E1B73
:0A554000681B431B6D1B721B771BD9
:10554A00000000010000000000000004010000004B
:10555A00040500000000000004090000000000002B
:10556A00090D0000000000000195078A11860788CE
:10557A00078707FF200021007F220003FFFF00FFAB
:10558A0000000001000300FF78616C6578690091F2
:10559A0002946697C6F4F5F6F73133000810181826
:1055AA00100800003131295A1B750A181712110AFE
:1055BA0009191613100B081A15140F0C07FFFFFF11
:1055CA000E0D0633322D2C252434312E2B2623356D
:1055DA00302F2A2722FFFFFF2928215510320D10CC
:1055EA00141026323055345F3F552755155504445B
:1055FA000244134425503A3C373223320D320021FB
:10560A000321142125102A1018100700070018007A
:10561A00298B10AE0DD014D026AE308B34813F8B3F
:10562A00278B158B049C029C139C25903AA437AEB9
:10563A0023AE0DAE00BF03BF14BF25D02AD018D0A9
:10564A0007E007E018E0290202020202020104044C
:10565A000404040401010404040404040404040109
:10566A000101020202020202010404040404040108
:10567A0001040404040404040404010101FF0502F2
:02568A0000001E
:00000001FF
